{"abi":[{"type":"constructor","inputs":[{"name":"ticketer_","type":"bytes22","internalType":"bytes22"},{"name":"content_","type":"bytes","internalType":"bytes"},{"name":"kernel_","type":"address","internalType":"address"},{"name":"name_","type":"string","internalType":"string"},{"name":"symbol_","type":"string","internalType":"string"},{"name":"decimals_","type":"uint8","internalType":"uint8"}],"stateMutability":"nonpayable"},{"type":"function","name":"allowance","inputs":[{"name":"owner","type":"address","internalType":"address"},{"name":"spender","type":"address","internalType":"address"}],"outputs":[{"name":"","type":"uint256","internalType":"uint256"}],"stateMutability":"view"},{"type":"function","name":"approve","inputs":[{"name":"spender","type":"address","internalType":"address"},{"name":"amount","type":"uint256","internalType":"uint256"}],"outputs":[{"name":"","type":"bool","internalType":"bool"}],"stateMutability":"nonpayable"},{"type":"function","name":"balanceOf","inputs":[{"name":"account","type":"address","internalType":"address"}],"outputs":[{"name":"","type":"uint256","internalType":"uint256"}],"stateMutability":"view"},{"type":"function","name":"decimals","inputs":[],"outputs":[{"name":"","type":"uint8","internalType":"uint8"}],"stateMutability":"view"},{"type":"function","name":"decreaseAllowance","inputs":[{"name":"spender","type":"address","internalType":"address"},{"name":"subtractedValue","type":"uint256","internalType":"uint256"}],"outputs":[{"name":"","type":"bool","internalType":"bool"}],"stateMutability":"nonpayable"},{"type":"function","name":"deposit","inputs":[{"name":"receiver","type":"address","internalType":"address"},{"name":"amount","type":"uint256","internalType":"uint256"},{"name":"ticketHash","type":"uint256","internalType":"uint256"}],"outputs":[],"stateMutability":"nonpayable"},{"type":"function","name":"getTicketHash","inputs":[],"outputs":[{"name":"","type":"uint256","internalType":"uint256"}],"stateMutability":"view"},{"type":"function","name":"increaseAllowance","inputs":[{"name":"spender","type":"address","internalType":"address"},{"name":"addedValue","type":"uint256","internalType":"uint256"}],"outputs":[{"name":"","type":"bool","internalType":"bool"}],"stateMutability":"nonpayable"},{"type":"function","name":"name","inputs":[],"outputs":[{"name":"","type":"string","internalType":"string"}],"stateMutability":"view"},{"type":"function","name":"symbol","inputs":[],"outputs":[{"name":"","type":"string","internalType":"string"}],"stateMutability":"view"},{"type":"function","name":"totalSupply","inputs":[],"outputs":[{"name":"","type":"uint256","internalType":"uint256"}],"stateMutability":"view"},{"type":"function","name":"transfer","inputs":[{"name":"to","type":"address","internalType":"address"},{"name":"amount","type":"uint256","internalType":"uint256"}],"outputs":[{"name":"","type":"bool","internalType":"bool"}],"stateMutability":"nonpayable"},{"type":"function","name":"transferFrom","inputs":[{"name":"from","type":"address","internalType":"address"},{"name":"to","type":"address","internalType":"address"},{"name":"amount","type":"uint256","internalType":"uint256"}],"outputs":[{"name":"","type":"bool","internalType":"bool"}],"stateMutability":"nonpayable"},{"type":"function","name":"withdraw","inputs":[{"name":"sender","type":"address","internalType":"address"},{"name":"amount","type":"uint256","internalType":"uint256"},{"name":"ticketHash","type":"uint256","internalType":"uint256"}],"outputs":[],"stateMutability":"nonpayable"},{"type":"event","name":"Approval","inputs":[{"name":"owner","type":"address","indexed":true,"internalType":"address"},{"name":"spender","type":"address","indexed":true,"internalType":"address"},{"name":"value","type":"uint256","indexed":false,"internalType":"uint256"}],"anonymous":false},{"type":"event","name":"Transfer","inputs":[{"name":"from","type":"address","indexed":true,"internalType":"address"},{"name":"to","type":"address","indexed":true,"internalType":"address"},{"name":"value","type":"uint256","indexed":false,"internalType":"uint256"}],"anonymous":false}],"bytecode":{"object":"0x60e06040523480156200001157600080fd5b506040516200116b3803806200116b8339810160408190526200003491620001bc565b8282600362000044838262000322565b50600462000053828262000322565b5050506200006886866200008a60201b60201c565b6080526001600160a01b0390931660a052505060ff1660c05250620004219050565b60008282604051602001620000a1929190620003ee565b60408051601f1981840301815291905280516020909101209392505050565b634e487b7160e01b600052604160045260246000fd5b60005b83811015620000f3578181015183820152602001620000d9565b50506000910152565b600082601f8301126200010e57600080fd5b81516001600160401b03808211156200012b576200012b620000c0565b604051601f8301601f19908116603f01168101908282118183101715620001565762000156620000c0565b816040528381528660208588010111156200017057600080fd5b62000183846020830160208901620000d6565b9695505050505050565b80516001600160a01b0381168114620001a557600080fd5b919050565b805160ff81168114620001a557600080fd5b60008060008060008060c08789031215620001d657600080fd5b86516001600160501b031981168114620001ef57600080fd5b60208801519096506001600160401b03808211156200020d57600080fd5b6200021b8a838b01620000fc565b96506200022b60408a016200018d565b955060608901519150808211156200024257600080fd5b620002508a838b01620000fc565b945060808901519150808211156200026757600080fd5b506200027689828a01620000fc565b9250506200028760a08801620001aa565b90509295509295509295565b600181811c90821680620002a857607f821691505b602082108103620002c957634e487b7160e01b600052602260045260246000fd5b50919050565b601f8211156200031d57600081815260208120601f850160051c81016020861015620002f85750805b601f850160051c820191505b81811015620003195782815560010162000304565b5050505b505050565b81516001600160401b038111156200033e576200033e620000c0565b62000356816200034f845462000293565b84620002cf565b602080601f8311600181146200038e5760008415620003755750858301515b600019600386901b1c1916600185901b17855562000319565b600085815260208120601f198616915b82811015620003bf578886015182559484019460019091019084016200039e565b5085821015620003de5787850151600019600388901b60f8161c191681555b5050505050600190811b01905550565b6001600160501b031983168152815160009062000413816016850160208701620000d6565b919091016016019392505050565b60805160a05160c051610d056200046660003960006101710152600081816102ff01526104ae0152600081816101b00152818161035201526104f80152610d056000f3fe608060405234801561001057600080fd5b50600436106100ea5760003560e01c806339bb44791161008c578063a457c2d711610066578063a457c2d714610205578063a9059cbb14610218578063b5c5f6721461022b578063dd62ed3e1461023e57600080fd5b806339bb4479146101ae57806370a08231146101d457806395d89b41146101fd57600080fd5b806318160ddd116100c857806318160ddd1461014557806323b872dd14610157578063313ce5671461016a578063395093511461019b57600080fd5b806306fdde03146100ef578063095ea7b31461010d5780630efe6a8b14610130575b600080fd5b6100f7610251565b6040516101049190610abf565b60405180910390f35b61012061011b366004610b29565b6102e3565b6040519015158152602001610104565b61014361013e366004610b53565b6102fd565b005b6002545b604051908152602001610104565b610120610165366004610b86565b6103ce565b60405160ff7f0000000000000000000000000000000000000000000000000000000000000000168152602001610104565b6101206101a9366004610b29565b6103f2565b7f0000000000000000000000000000000000000000000000000000000000000000610149565b6101496101e2366004610bc2565b6001600160a01b031660009081526020819052604090205490565b6100f7610414565b610120610213366004610b29565b610423565b610120610226366004610b29565b61049e565b610143610239366004610b53565b6104ac565b61014961024c366004610be4565b61056e565b60606003805461026090610c17565b80601f016020809104026020016040519081016040528092919081815260200182805461028c90610c17565b80156102d95780601f106102ae576101008083540402835291602001916102d9565b820191906000526020600020905b8154815290600101906020018083116102bc57829003601f168201915b5050505050905090565b6000336102f1818585610599565b60019150505b92915050565b7f00000000000000000000000000000000000000000000000000000000000000006001600160a01b0316331461034e5760405162461bcd60e51b815260040161034590610c51565b60405180910390fd5b80807f0000000000000000000000000000000000000000000000000000000000000000146103be5760405162461bcd60e51b815260206004820152601d60248201527f455243323050726f78793a2077726f6e67207469636b657420686173680000006044820152606401610345565b6103c884846106be565b50505050565b6000336103dc85828561077d565b6103e78585856107f1565b506001949350505050565b6000336102f1818585610405838361056e565b61040f9190610cae565b610599565b60606004805461026090610c17565b60003381610431828661056e565b9050838110156104915760405162461bcd60e51b815260206004820152602560248201527f45524332303a2064656372656173656420616c6c6f77616e63652062656c6f77604482015264207a65726f60d81b6064820152608401610345565b6103e78286868403610599565b6000336102f18185856107f1565b7f00000000000000000000000000000000000000000000000000000000000000006001600160a01b031633146104f45760405162461bcd60e51b815260040161034590610c51565b80807f0000000000000000000000000000000000000000000000000000000000000000146105645760405162461bcd60e51b815260206004820152601d60248201527f455243323050726f78793a2077726f6e67207469636b657420686173680000006044820152606401610345565b6103c88484610995565b6001600160a01b03918216600090815260016020908152604080832093909416825291909152205490565b6001600160a01b0383166105fb5760405162461bcd60e51b8152602060048201526024808201527f45524332303a20617070726f76652066726f6d20746865207a65726f206164646044820152637265737360e01b6064820152608401610345565b6001600160a01b03821661065c5760405162461bcd60e51b815260206004820152602260248201527f45524332303a20617070726f766520746f20746865207a65726f206164647265604482015261737360f01b6064820152608401610345565b6001600160a01b0383811660008181526001602090815260408083209487168084529482529182902085905590518481527f8c5be1e5ebec7d5bd14f71427d1e84f3dd0314c0f7b2291e5b200ac8c7c3b92591015b60405180910390a3505050565b6001600160a01b0382166107145760405162461bcd60e51b815260206004820152601f60248201527f45524332303a206d696e7420746f20746865207a65726f2061646472657373006044820152606401610345565b80600260008282546107269190610cae565b90915550506001600160a01b038216600081815260208181526040808320805486019055518481527fddf252ad1be2c89b69c2b068fc378daa952ba7f163c4a11628f55a4df523b3ef910160405180910390a35050565b6000610789848461056e565b905060001981146103c857818110156107e45760405162461bcd60e51b815260206004820152601d60248201527f45524332303a20696e73756666696369656e7420616c6c6f77616e63650000006044820152606401610345565b6103c88484848403610599565b6001600160a01b0383166108555760405162461bcd60e51b815260206004820152602560248201527f45524332303a207472616e736665722066726f6d20746865207a65726f206164604482015264647265737360d81b6064820152608401610345565b6001600160a01b0382166108b75760405162461bcd60e51b815260206004820152602360248201527f45524332303a207472616e7366657220746f20746865207a65726f206164647260448201526265737360e81b6064820152608401610345565b6001600160a01b0383166000908152602081905260409020548181101561092f5760405162461bcd60e51b815260206004820152602660248201527f45524332303a207472616e7366657220616d6f756e7420657863656564732062604482015265616c616e636560d01b6064820152608401610345565b6001600160a01b03848116600081815260208181526040808320878703905593871680835291849020805487019055925185815290927fddf252ad1be2c89b69c2b068fc378daa952ba7f163c4a11628f55a4df523b3ef910160405180910390a36103c8565b6001600160a01b0382166109f55760405162461bcd60e51b815260206004820152602160248201527f45524332303a206275726e2066726f6d20746865207a65726f206164647265736044820152607360f81b6064820152608401610345565b6001600160a01b03821660009081526020819052604090205481811015610a695760405162461bcd60e51b815260206004820152602260248201527f45524332303a206275726e20616d6f756e7420657863656564732062616c616e604482015261636560f01b6064820152608401610345565b6001600160a01b0383166000818152602081815260408083208686039055600280548790039055518581529192917fddf252ad1be2c89b69c2b068fc378daa952ba7f163c4a11628f55a4df523b3ef91016106b1565b600060208083528351808285015260005b81811015610aec57858101830151858201604001528201610ad0565b506000604082860101526040601f19601f8301168501019250505092915050565b80356001600160a01b0381168114610b2457600080fd5b919050565b60008060408385031215610b3c57600080fd5b610b4583610b0d565b946020939093013593505050565b600080600060608486031215610b6857600080fd5b610b7184610b0d565b95602085013595506040909401359392505050565b600080600060608486031215610b9b57600080fd5b610ba484610b0d565b9250610bb260208501610b0d565b9150604084013590509250925092565b600060208284031215610bd457600080fd5b610bdd82610b0d565b9392505050565b60008060408385031215610bf757600080fd5b610c0083610b0d565b9150610c0e60208401610b0d565b90509250929050565b600181811c90821680610c2b57607f821691505b602082108103610c4b57634e487b7160e01b600052602260045260246000fd5b50919050565b6020808252603c908201527f455243323050726f78793a206f6e6c79206b65726e656c20616c6c6f7765642060408201527f746f206465706f736974202f20776974686472617720746f6b656e7300000000606082015260800190565b808201808211156102f757634e487b7160e01b600052601160045260246000fdfea26469706673582212209fdf5055b40d0560ea1ab7b02f98e064d8ce3818a854b05dc703068d8789b6de64736f6c63430008150033","linkReferences":{}},"methodIdentifiers":{"allowance(address,address)":"dd62ed3e","approve(address,uint256)":"095ea7b3","balanceOf(address)":"70a08231","decimals()":"313ce567","decreaseAllowance(address,uint256)":"a457c2d7","deposit(address,uint256,uint256)":"0efe6a8b","getTicketHash()":"39bb4479","increaseAllowance(address,uint256)":"39509351","name()":"06fdde03","symbol()":"95d89b41","totalSupply()":"18160ddd","transfer(address,uint256)":"a9059cbb","transferFrom(address,address,uint256)":"23b872dd","withdraw(address,uint256,uint256)":"b5c5f672"},"id":22}