{"abi":[{"type":"constructor","inputs":[{"name":"ticketOwner_","type":"address","internalType":"address"},{"name":"withdrawalPrecompile_","type":"address","internalType":"address"},{"name":"routingInfo_","type":"bytes","internalType":"bytes"},{"name":"amount_","type":"uint256","internalType":"uint256"},{"name":"ticketer_","type":"bytes22","internalType":"bytes22"},{"name":"content_","type":"bytes","internalType":"bytes"},{"name":"callsCount_","type":"uint256","internalType":"uint256"}],"stateMutability":"nonpayable"},{"type":"function","name":"amount","inputs":[],"outputs":[{"name":"","type":"uint256","internalType":"uint256"}],"stateMutability":"view"},{"type":"function","name":"callsCount","inputs":[],"outputs":[{"name":"","type":"uint256","internalType":"uint256"}],"stateMutability":"view"},{"type":"function","name":"content","inputs":[],"outputs":[{"name":"","type":"bytes","internalType":"bytes"}],"stateMutability":"view"},{"type":"function","name":"deposit","inputs":[{"name":"","type":"address","internalType":"address"},{"name":"","type":"uint256","internalType":"uint256"},{"name":"","type":"uint256","internalType":"uint256"}],"outputs":[],"stateMutability":"nonpayable"},{"type":"function","name":"routingInfo","inputs":[],"outputs":[{"name":"","type":"bytes","internalType":"bytes"}],"stateMutability":"view"},{"type":"function","name":"setParameters","inputs":[{"name":"ticketOwner_","type":"address","internalType":"address"},{"name":"withdrawalPrecompile_","type":"address","internalType":"address"},{"name":"routingInfo_","type":"bytes","internalType":"bytes"},{"name":"amount_","type":"uint256","internalType":"uint256"},{"name":"ticketer_","type":"bytes22","internalType":"bytes22"},{"name":"content_","type":"bytes","internalType":"bytes"},{"name":"callsCount_","type":"uint256","internalType":"uint256"}],"outputs":[],"stateMutability":"nonpayable"},{"type":"function","name":"ticketOwner","inputs":[],"outputs":[{"name":"","type":"address","internalType":"address"}],"stateMutability":"view"},{"type":"function","name":"ticketer","inputs":[],"outputs":[{"name":"","type":"bytes22","internalType":"bytes22"}],"stateMutability":"view"},{"type":"function","name":"withdraw","inputs":[{"name":"","type":"address","internalType":"address"},{"name":"","type":"uint256","internalType":"uint256"},{"name":"","type":"uint256","internalType":"uint256"}],"outputs":[],"stateMutability":"nonpayable"},{"type":"function","name":"withdrawalPrecompile","inputs":[],"outputs":[{"name":"","type":"address","internalType":"address"}],"stateMutability":"view"}],"bytecode":{"object":"0x60806040523480156200001157600080fd5b5060405162000cc838038062000cc88339810160408190526200003491620001ac565b60008055620000498787878787878762000056565b50505050505050620003cd565b600180546001600160a01b03808a166001600160a01b0319928316179092556002805492891692909116919091179055600362000094868262000301565b506004849055600580546001600160b01b031916605085901c1790556006620000be838262000301565b50600755505050505050565b80516001600160a01b0381168114620000e257600080fd5b919050565b634e487b7160e01b600052604160045260246000fd5b600082601f8301126200010f57600080fd5b81516001600160401b03808211156200012c576200012c620000e7565b604051601f8301601f19908116603f01168101908282118183101715620001575762000157620000e7565b816040528381526020925086838588010111156200017457600080fd5b600091505b8382101562000198578582018301518183018401529082019062000179565b600093810190920192909252949350505050565b600080600080600080600060e0888a031215620001c857600080fd5b620001d388620000ca565b9650620001e360208901620000ca565b60408901519096506001600160401b03808211156200020157600080fd5b6200020f8b838c01620000fd565b60608b015160808c0151919850965091506001600160501b0319821682146200023757600080fd5b60a08a0151919450808211156200024d57600080fd5b506200025c8a828b01620000fd565b92505060c0880151905092959891949750929550565b600181811c908216806200028757607f821691505b602082108103620002a857634e487b7160e01b600052602260045260246000fd5b50919050565b601f821115620002fc57600081815260208120601f850160051c81016020861015620002d75750805b601f850160051c820191505b81811015620002f857828155600101620002e3565b5050505b505050565b81516001600160401b038111156200031d576200031d620000e7565b62000335816200032e845462000272565b84620002ae565b602080601f8311600181146200036d5760008415620003545750858301515b600019600386901b1c1916600185901b178555620002f8565b600085815260208120601f198616915b828110156200039e578886015182559484019460019091019084016200037d565b5085821015620003bd5787850151600019600388901b60f8161c191681555b5050505050600190811b01905550565b6108eb80620003dd6000396000f3fe608060405234801561001057600080fd5b506004361061009d5760003560e01c80634989703411610066578063498970341461013a57806373af38511461014d5780638a4d5a6714610162578063aa8c217c1461016a578063b5c5f6721461017357600080fd5b8062641e8b146100a2578063071c9308146100d25780630be69fcd146100e55780630efe6a8b146100fc5780633f70f34714610111575b600080fd5b6001546100b5906001600160a01b031681565b6040516001600160a01b0390911681526020015b60405180910390f35b6002546100b5906001600160a01b031681565b6100ee60075481565b6040519081526020016100c9565b61010f61010a36600461044d565b610186565b005b60055461011e9060501b81565b60405169ffffffffffffffffffff1990911681526020016100c9565b61010f610148366004610523565b610193565b610155610203565b6040516100c99190610604565b610155610291565b6100ee60045481565b61010f61018136600461044d565b61029e565b61018e6102e6565b505050565b600180546001600160a01b03808a166001600160a01b031992831617909255600280549289169290911691909117905560036101cf86826106bf565b506004849055600580546001600160b01b031916605085901c17905560066101f783826106bf565b50600755505050505050565b6003805461021090610637565b80601f016020809104026020016040519081016040528092919081815260200182805461023c90610637565b80156102895780601f1061025e57610100808354040283529160200191610289565b820191906000526020600020905b81548152906001019060200180831161026c57829003601f168201915b505050505081565b6006805461021090610637565b600a600054101561018e5760016000808282546102bb9190610795565b909155506102c990506102e6565b60016000808282546102db91906107ae565b9091555061018e9050565b60045460055460405160009261030b9230926003929160501b9060069060240161083e565b60408051601f198184030181529190526020810180516001600160e01b03166380fc1fe360e01b179052600254600754919250610358916001600160a01b0390911690839060009061035b565b50565b60015b81811161042a576000856001600160a01b031684866040516103809190610899565b60006040518083038185875af1925050503d80600081146103bd576040519150601f19603f3d011682016040523d82523d6000602084013e6103c2565b606091505b50509050806104175760405162461bcd60e51b815260206004820152601e60248201527f43616c6c20746f2074617267657420636f6e7472616374206661696c65640000604482015260640160405180910390fd5b610422600183610795565b91505061035e565b5050505050565b80356001600160a01b038116811461044857600080fd5b919050565b60008060006060848603121561046257600080fd5b61046b84610431565b95602085013595506040909401359392505050565b634e487b7160e01b600052604160045260246000fd5b600082601f8301126104a757600080fd5b813567ffffffffffffffff808211156104c2576104c2610480565b604051601f8301601f19908116603f011681019082821181831017156104ea576104ea610480565b8160405283815286602085880101111561050357600080fd5b836020870160208301376000602085830101528094505050505092915050565b600080600080600080600060e0888a03121561053e57600080fd5b61054788610431565b965061055560208901610431565b9550604088013567ffffffffffffffff8082111561057257600080fd5b61057e8b838c01610496565b965060608a0135955060808a0135915069ffffffffffffffffffff19821682146105a757600080fd5b90935060a089013590808211156105bd57600080fd5b506105ca8a828b01610496565b92505060c0880135905092959891949750929550565b60005b838110156105fb5781810151838201526020016105e3565b50506000910152565b60208152600082518060208401526106238160408501602087016105e0565b601f01601f19169190910160400192915050565b600181811c9082168061064b57607f821691505b60208210810361066b57634e487b7160e01b600052602260045260246000fd5b50919050565b601f82111561018e57600081815260208120601f850160051c810160208610156106985750805b601f850160051c820191505b818110156106b7578281556001016106a4565b505050505050565b815167ffffffffffffffff8111156106d9576106d9610480565b6106ed816106e78454610637565b84610671565b602080601f831160018114610722576000841561070a5750858301515b600019600386901b1c1916600185901b1785556106b7565b600085815260208120601f198616915b8281101561075157888601518255948401946001909101908401610732565b508582101561076f5787850151600019600388901b60f8161c191681555b5050505050600190811b01905550565b634e487b7160e01b600052601160045260246000fd5b808201808211156107a8576107a861077f565b92915050565b818103818111156107a8576107a861077f565b600081546107ce81610637565b8085526020600183811680156107eb576001811461080557610833565b60ff1985168884015283151560051b880183019550610833565b866000528260002060005b8581101561082b5781548a8201860152908301908401610810565b890184019650505b505050505092915050565b6001600160a01b038616815260a060208201819052600090610862908301876107c1565b85604084015269ffffffffffffffffffff1985166060840152828103608084015261088d81856107c1565b98975050505050505050565b600082516108ab8184602087016105e0565b919091019291505056fea2646970667358221220b8eda57ceb6d2053a0ce4c4f626bfbe231db05f73a682f89a723ab5f5afd919464736f6c63430008150033","linkReferences":{}},"methodIdentifiers":{"amount()":"aa8c217c","callsCount()":"0be69fcd","content()":"8a4d5a67","deposit(address,uint256,uint256)":"0efe6a8b","routingInfo()":"73af3851","setParameters(address,address,bytes,uint256,bytes22,bytes,uint256)":"49897034","ticketOwner()":"00641e8b","ticketer()":"3f70f347","withdraw(address,uint256,uint256)":"b5c5f672","withdrawalPrecompile()":"071c9308"},"id":30}