{
  "abi": [
    {
      "inputs": [
        {
          "internalType": "address",
          "name": "withdrawalPrecompile_",
          "type": "address"
        },
        {
          "internalType": "bytes",
          "name": "routingInfo_",
          "type": "bytes"
        },
        {
          "internalType": "uint256",
          "name": "amount_",
          "type": "uint256"
        },
        {
          "internalType": "bytes22",
          "name": "ticketer_",
          "type": "bytes22"
        },
        {
          "internalType": "bytes",
          "name": "content_",
          "type": "bytes"
        },
        {
          "internalType": "uint256",
          "name": "callsCount_",
          "type": "uint256"
        }
      ],
      "stateMutability": "nonpayable",
      "type": "constructor"
    },
    {
      "inputs": [],
      "name": "amount",
      "outputs": [
        {
          "internalType": "uint256",
          "name": "",
          "type": "uint256"
        }
      ],
      "stateMutability": "view",
      "type": "function"
    },
    {
      "inputs": [],
      "name": "callsCount",
      "outputs": [
        {
          "internalType": "uint256",
          "name": "",
          "type": "uint256"
        }
      ],
      "stateMutability": "view",
      "type": "function"
    },
    {
      "inputs": [],
      "name": "content",
      "outputs": [
        {
          "internalType": "bytes",
          "name": "",
          "type": "bytes"
        }
      ],
      "stateMutability": "view",
      "type": "function"
    },
    {
      "inputs": [
        {
          "internalType": "address",
          "name": "",
          "type": "address"
        },
        {
          "internalType": "uint256",
          "name": "",
          "type": "uint256"
        },
        {
          "internalType": "uint256",
          "name": "",
          "type": "uint256"
        }
      ],
      "name": "deposit",
      "outputs": [],
      "stateMutability": "nonpayable",
      "type": "function"
    },
    {
      "inputs": [],
      "name": "routingInfo",
      "outputs": [
        {
          "internalType": "bytes",
          "name": "",
          "type": "bytes"
        }
      ],
      "stateMutability": "view",
      "type": "function"
    },
    {
      "inputs": [
        {
          "internalType": "address",
          "name": "withdrawalPrecompile_",
          "type": "address"
        },
        {
          "internalType": "bytes",
          "name": "routingInfo_",
          "type": "bytes"
        },
        {
          "internalType": "uint256",
          "name": "amount_",
          "type": "uint256"
        },
        {
          "internalType": "bytes22",
          "name": "ticketer_",
          "type": "bytes22"
        },
        {
          "internalType": "bytes",
          "name": "content_",
          "type": "bytes"
        },
        {
          "internalType": "uint256",
          "name": "callsCount_",
          "type": "uint256"
        }
      ],
      "name": "setParameters",
      "outputs": [],
      "stateMutability": "nonpayable",
      "type": "function"
    },
    {
      "inputs": [],
      "name": "ticketer",
      "outputs": [
        {
          "internalType": "bytes22",
          "name": "",
          "type": "bytes22"
        }
      ],
      "stateMutability": "view",
      "type": "function"
    },
    {
      "inputs": [
        {
          "internalType": "address",
          "name": "",
          "type": "address"
        },
        {
          "internalType": "uint256",
          "name": "",
          "type": "uint256"
        },
        {
          "internalType": "uint256",
          "name": "",
          "type": "uint256"
        }
      ],
      "name": "withdraw",
      "outputs": [],
      "stateMutability": "nonpayable",
      "type": "function"
    },
    {
      "inputs": [],
      "name": "withdrawalPrecompile",
      "outputs": [
        {
          "internalType": "address",
          "name": "",
          "type": "address"
        }
      ],
      "stateMutability": "view",
      "type": "function"
    }
  ],
  "bytecode": {
    "object": "0x60806040523480156200001157600080fd5b5060405162000c0438038062000c04833981016040819052620000349162000177565b600080556200004886868686868662000054565b50505050505062000391565b600180546001600160a01b0319166001600160a01b03881617905560026200007d8682620002c5565b506003849055600480546001600160b01b031916605085901c1790556005620000a78382620002c5565b506006555050505050565b634e487b7160e01b600052604160045260246000fd5b600082601f830112620000da57600080fd5b81516001600160401b0380821115620000f757620000f7620000b2565b604051601f8301601f19908116603f01168101908282118183101715620001225762000122620000b2565b816040528381526020925086838588010111156200013f57600080fd5b600091505b8382101562000163578582018301518183018401529082019062000144565b600093810190920192909252949350505050565b60008060008060008060c087890312156200019157600080fd5b86516001600160a01b0381168114620001a957600080fd5b60208801519096506001600160401b0380821115620001c757600080fd5b620001d58a838b01620000c8565b60408a015160608b0151919850965091506001600160501b031982168214620001fd57600080fd5b6080890151919450808211156200021357600080fd5b506200022289828a01620000c8565b92505060a087015190509295509295509295565b600181811c908216806200024b57607f821691505b6020821081036200026c57634e487b7160e01b600052602260045260246000fd5b50919050565b601f821115620002c057600081815260208120601f850160051c810160208610156200029b5750805b601f850160051c820191505b81811015620002bc57828155600101620002a7565b5050505b505050565b81516001600160401b03811115620002e157620002e1620000b2565b620002f981620002f2845462000236565b8462000272565b602080601f831160018114620003315760008415620003185750858301515b600019600386901b1c1916600185901b178555620002bc565b600085815260208120601f198616915b82811015620003625788860151825594840194600190910190840162000341565b5085821015620003815787850151600019600388901b60f8161c191681555b5050505050600190811b01905550565b61086380620003a16000396000f3fe608060405234801561001057600080fd5b50600436106100935760003560e01c806359537d491161006657806359537d491461011d57806373af3851146101305780638a4d5a6714610145578063aa8c217c1461014d578063b5c5f6721461015657600080fd5b8063071c9308146100985780630be69fcd146100c85780630efe6a8b146100df5780633f70f347146100f4575b600080fd5b6001546100ab906001600160a01b031681565b6040516001600160a01b0390911681526020015b60405180910390f35b6100d160065481565b6040519081526020016100bf565b6100f26100ed3660046103f2565b610169565b005b6004546101019060501b81565b60405169ffffffffffffffffffff1990911681526020016100bf565b6100f261012b3660046104c8565b610176565b6101386101d0565b6040516100bf9190610597565b61013861025e565b6100d160035481565b6100f26101643660046103f2565b61026b565b61017161028b565b505050565b600180546001600160a01b0319166001600160a01b038816179055600261019d8682610652565b506003849055600480546001600160b01b031916605085901c17905560056101c58382610652565b506006555050505050565b600280546101dd906105ca565b80601f0160208091040260200160405190810160405280929190818152602001828054610209906105ca565b80156102565780601f1061022b57610100808354040283529160200191610256565b820191906000526020600020905b81548152906001019060200180831161023957829003601f168201915b505050505081565b600580546101dd906105ca565b60005460000361017157600160005561028261028b565b60008055505050565b6003546004546040516000926102b09230926002929160501b9060059060240161078f565b60408051601f198184030181529190526020810180516001600160e01b03166380fc1fe360e01b1790526001546006549192506102fd916001600160a01b03909116908390600090610300565b50565b60015b8181116103cf576000856001600160a01b0316848660405161032591906107ea565b60006040518083038185875af1925050503d8060008114610362576040519150601f19603f3d011682016040523d82523d6000602084013e610367565b606091505b50509050806103bc5760405162461bcd60e51b815260206004820152601e60248201527f43616c6c20746f2074617267657420636f6e7472616374206661696c65640000604482015260640160405180910390fd5b6103c7600183610806565b915050610303565b5050505050565b80356001600160a01b03811681146103ed57600080fd5b919050565b60008060006060848603121561040757600080fd5b610410846103d6565b95602085013595506040909401359392505050565b634e487b7160e01b600052604160045260246000fd5b600082601f83011261044c57600080fd5b813567ffffffffffffffff8082111561046757610467610425565b604051601f8301601f19908116603f0116810190828211818310171561048f5761048f610425565b816040528381528660208588010111156104a857600080fd5b836020870160208301376000602085830101528094505050505092915050565b60008060008060008060c087890312156104e157600080fd5b6104ea876103d6565b9550602087013567ffffffffffffffff8082111561050757600080fd5b6105138a838b0161043b565b9650604089013595506060890135915069ffffffffffffffffffff198216821461053c57600080fd5b9093506080880135908082111561055257600080fd5b5061055f89828a0161043b565b92505060a087013590509295509295509295565b60005b8381101561058e578181015183820152602001610576565b50506000910152565b60208152600082518060208401526105b6816040850160208701610573565b601f01601f19169190910160400192915050565b600181811c908216806105de57607f821691505b6020821081036105fe57634e487b7160e01b600052602260045260246000fd5b50919050565b601f82111561017157600081815260208120601f850160051c8101602086101561062b5750805b601f850160051c820191505b8181101561064a57828155600101610637565b505050505050565b815167ffffffffffffffff81111561066c5761066c610425565b6106808161067a84546105ca565b84610604565b602080601f8311600181146106b5576000841561069d5750858301515b600019600386901b1c1916600185901b17855561064a565b600085815260208120601f198616915b828110156106e4578886015182559484019460019091019084016106c5565b50858210156107025787850151600019600388901b60f8161c191681555b5050505050600190811b01905550565b6000815461071f816105ca565b80855260206001838116801561073c576001811461075657610784565b60ff1985168884015283151560051b880183019550610784565b866000528260002060005b8581101561077c5781548a8201860152908301908401610761565b890184019650505b505050505092915050565b6001600160a01b038616815260a0602082018190526000906107b390830187610712565b85604084015269ffffffffffffffffffff198516606084015282810360808401526107de8185610712565b98975050505050505050565b600082516107fc818460208701610573565b9190910192915050565b8082018082111561082757634e487b7160e01b600052601160045260246000fd5b9291505056fea2646970667358221220bfb0149c241208b3d1b17f2656c87b3469fd8c4db21c4bbe9e0af2216fefa5ca64736f6c63430008150033",
    "linkReferences": {}
  },
  "methodIdentifiers": {
    "amount()": "aa8c217c",
    "callsCount()": "0be69fcd",
    "content()": "8a4d5a67",
    "deposit(address,uint256,uint256)": "0efe6a8b",
    "routingInfo()": "73af3851",
    "setParameters(address,bytes,uint256,bytes22,bytes,uint256)": "59537d49",
    "ticketer()": "3f70f347",
    "withdraw(address,uint256,uint256)": "b5c5f672",
    "withdrawalPrecompile()": "071c9308"
  },
  "id": 1
}