{
  "abi": [
    {
      "inputs": [
        {
          "internalType": "address",
          "name": "withdrawalPrecompile_",
          "type": "address"
        },
        {
          "internalType": "bytes",
          "name": "routingInfo_",
          "type": "bytes"
        },
        {
          "internalType": "uint256",
          "name": "amount_",
          "type": "uint256"
        },
        {
          "internalType": "bytes22",
          "name": "ticketer_",
          "type": "bytes22"
        },
        {
          "internalType": "bytes",
          "name": "content_",
          "type": "bytes"
        },
        {
          "internalType": "uint256",
          "name": "callsCount_",
          "type": "uint256"
        }
      ],
      "stateMutability": "nonpayable",
      "type": "constructor"
    },
    {
      "inputs": [],
      "name": "amount",
      "outputs": [
        {
          "internalType": "uint256",
          "name": "",
          "type": "uint256"
        }
      ],
      "stateMutability": "view",
      "type": "function"
    },
    {
      "inputs": [],
      "name": "callsCount",
      "outputs": [
        {
          "internalType": "uint256",
          "name": "",
          "type": "uint256"
        }
      ],
      "stateMutability": "view",
      "type": "function"
    },
    {
      "inputs": [],
      "name": "content",
      "outputs": [
        {
          "internalType": "bytes",
          "name": "",
          "type": "bytes"
        }
      ],
      "stateMutability": "view",
      "type": "function"
    },
    {
      "inputs": [
        {
          "internalType": "address",
          "name": "",
          "type": "address"
        },
        {
          "internalType": "uint256",
          "name": "",
          "type": "uint256"
        },
        {
          "internalType": "uint256",
          "name": "",
          "type": "uint256"
        }
      ],
      "name": "deposit",
      "outputs": [],
      "stateMutability": "nonpayable",
      "type": "function"
    },
    {
      "inputs": [],
      "name": "routingInfo",
      "outputs": [
        {
          "internalType": "bytes",
          "name": "",
          "type": "bytes"
        }
      ],
      "stateMutability": "view",
      "type": "function"
    },
    {
      "inputs": [
        {
          "internalType": "address",
          "name": "withdrawalPrecompile_",
          "type": "address"
        },
        {
          "internalType": "bytes",
          "name": "routingInfo_",
          "type": "bytes"
        },
        {
          "internalType": "uint256",
          "name": "amount_",
          "type": "uint256"
        },
        {
          "internalType": "bytes22",
          "name": "ticketer_",
          "type": "bytes22"
        },
        {
          "internalType": "bytes",
          "name": "content_",
          "type": "bytes"
        },
        {
          "internalType": "uint256",
          "name": "callsCount_",
          "type": "uint256"
        }
      ],
      "name": "setParameters",
      "outputs": [],
      "stateMutability": "nonpayable",
      "type": "function"
    },
    {
      "inputs": [],
      "name": "ticketer",
      "outputs": [
        {
          "internalType": "bytes22",
          "name": "",
          "type": "bytes22"
        }
      ],
      "stateMutability": "view",
      "type": "function"
    },
    {
      "inputs": [
        {
          "internalType": "address",
          "name": "",
          "type": "address"
        },
        {
          "internalType": "uint256",
          "name": "",
          "type": "uint256"
        },
        {
          "internalType": "uint256",
          "name": "",
          "type": "uint256"
        }
      ],
      "name": "withdraw",
      "outputs": [],
      "stateMutability": "nonpayable",
      "type": "function"
    },
    {
      "inputs": [],
      "name": "withdrawalPrecompile",
      "outputs": [
        {
          "internalType": "address",
          "name": "",
          "type": "address"
        }
      ],
      "stateMutability": "view",
      "type": "function"
    }
  ],
  "bytecode": {
    "object": "0x60806040523480156200001157600080fd5b5060405162000c6b38038062000c6b833981016040819052620000349162000177565b600080556200004886868686868662000054565b50505050505062000391565b600180546001600160a01b0319166001600160a01b03881617905560026200007d8682620002c5565b506003849055600480546001600160b01b031916605085901c1790556005620000a78382620002c5565b506006555050505050565b634e487b7160e01b600052604160045260246000fd5b600082601f830112620000da57600080fd5b81516001600160401b0380821115620000f757620000f7620000b2565b604051601f8301601f19908116603f01168101908282118183101715620001225762000122620000b2565b816040528381526020925086838588010111156200013f57600080fd5b600091505b8382101562000163578582018301518183018401529082019062000144565b600093810190920192909252949350505050565b60008060008060008060c087890312156200019157600080fd5b86516001600160a01b0381168114620001a957600080fd5b60208801519096506001600160401b0380821115620001c757600080fd5b620001d58a838b01620000c8565b60408a015160608b0151919850965091506001600160501b031982168214620001fd57600080fd5b6080890151919450808211156200021357600080fd5b506200022289828a01620000c8565b92505060a087015190509295509295509295565b600181811c908216806200024b57607f821691505b6020821081036200026c57634e487b7160e01b600052602260045260246000fd5b50919050565b601f821115620002c057600081815260208120601f850160051c810160208610156200029b5750805b601f850160051c820191505b81811015620002bc57828155600101620002a7565b5050505b505050565b81516001600160401b03811115620002e157620002e1620000b2565b620002f981620002f2845462000236565b8462000272565b602080601f831160018114620003315760008415620003185750858301515b600019600386901b1c1916600185901b178555620002bc565b600085815260208120601f198616915b82811015620003625788860151825594840194600190910190840162000341565b5085821015620003815787850151600019600388901b60f8161c191681555b5050505050600190811b01905550565b6108ca80620003a16000396000f3fe608060405234801561001057600080fd5b50600436106100935760003560e01c806359537d491161006657806359537d491461011d57806373af3851146101305780638a4d5a6714610145578063aa8c217c1461014d578063b5c5f6721461015657600080fd5b8063071c9308146100985780630be69fcd146100c85780630efe6a8b146100df5780633f70f347146100f4575b600080fd5b6001546100ab906001600160a01b031681565b6040516001600160a01b0390911681526020015b60405180910390f35b6100d160065481565b6040519081526020016100bf565b6100f26100ed366004610459565b610169565b005b6004546101019060501b81565b60405169ffffffffffffffffffff1990911681526020016100bf565b6100f261012b36600461052f565b6101e1565b61013861023b565b6040516100bf91906105fe565b6101386102c9565b6100d160035481565b6100f2610164366004610459565b6102d6565b60035460045460405160009261018e9230926002929160501b906005906024016106e8565b60408051601f198184030181529190526020810180516001600160e01b03166380fc1fe360e01b1790526001546006549192506101db916001600160a01b03909116908390600090610367565b50505050565b600180546001600160a01b0319166001600160a01b03881617905560026102088682610791565b506003849055600480546001600160b01b031916605085901c17905560056102308382610791565b506006555050505050565b6002805461024890610631565b80601f016020809104026020016040519081016040528092919081815260200182805461027490610631565b80156102c15780601f10610296576101008083540402835291602001916102c1565b820191906000526020600020905b8154815290600101906020018083116102a457829003601f168201915b505050505081565b6005805461024890610631565b600054600003610362576001600090815560035460045460405161030b92309260029260509190911b906005906024016106e8565b60408051601f198184030181529190526020810180516001600160e01b03166380fc1fe360e01b179052600154600654919250610358916001600160a01b03909116908390600090610367565b5060008055505050565b505050565b60015b818111610436576000856001600160a01b0316848660405161038c9190610851565b60006040518083038185875af1925050503d80600081146103c9576040519150601f19603f3d011682016040523d82523d6000602084013e6103ce565b606091505b50509050806104235760405162461bcd60e51b815260206004820152601e60248201527f43616c6c20746f2074617267657420636f6e7472616374206661696c65640000604482015260640160405180910390fd5b61042e60018361086d565b91505061036a565b5050505050565b80356001600160a01b038116811461045457600080fd5b919050565b60008060006060848603121561046e57600080fd5b6104778461043d565b95602085013595506040909401359392505050565b634e487b7160e01b600052604160045260246000fd5b600082601f8301126104b357600080fd5b813567ffffffffffffffff808211156104ce576104ce61048c565b604051601f8301601f19908116603f011681019082821181831017156104f6576104f661048c565b8160405283815286602085880101111561050f57600080fd5b836020870160208301376000602085830101528094505050505092915050565b60008060008060008060c0878903121561054857600080fd5b6105518761043d565b9550602087013567ffffffffffffffff8082111561056e57600080fd5b61057a8a838b016104a2565b9650604089013595506060890135915069ffffffffffffffffffff19821682146105a357600080fd5b909350608088013590808211156105b957600080fd5b506105c689828a016104a2565b92505060a087013590509295509295509295565b60005b838110156105f55781810151838201526020016105dd565b50506000910152565b602081526000825180602084015261061d8160408501602087016105da565b601f01601f19169190910160400192915050565b600181811c9082168061064557607f821691505b60208210810361066557634e487b7160e01b600052602260045260246000fd5b50919050565b6000815461067881610631565b80855260206001838116801561069557600181146106af576106dd565b60ff1985168884015283151560051b8801830195506106dd565b866000528260002060005b858110156106d55781548a82018601529083019084016106ba565b890184019650505b505050505092915050565b6001600160a01b038616815260a06020820181905260009061070c9083018761066b565b85604084015269ffffffffffffffffffff19851660608401528281036080840152610737818561066b565b98975050505050505050565b601f82111561036257600081815260208120601f850160051c8101602086101561076a5750805b601f850160051c820191505b8181101561078957828155600101610776565b505050505050565b815167ffffffffffffffff8111156107ab576107ab61048c565b6107bf816107b98454610631565b84610743565b602080601f8311600181146107f457600084156107dc5750858301515b600019600386901b1c1916600185901b178555610789565b600085815260208120601f198616915b8281101561082357888601518255948401946001909101908401610804565b50858210156108415787850151600019600388901b60f8161c191681555b5050505050600190811b01905550565b600082516108638184602087016105da565b9190910192915050565b8082018082111561088e57634e487b7160e01b600052601160045260246000fd5b9291505056fea26469706673582212209d368b41e141311282ec75f12ccb61ea6f5948c075ff44c4c91d636ec40755a464736f6c63430008150033",
    "linkReferences": {}
  },
  "methodIdentifiers": {
    "amount()": "aa8c217c",
    "callsCount()": "0be69fcd",
    "content()": "8a4d5a67",
    "deposit(address,uint256,uint256)": "0efe6a8b",
    "routingInfo()": "73af3851",
    "setParameters(address,bytes,uint256,bytes22,bytes,uint256)": "59537d49",
    "ticketer()": "3f70f347",
    "withdraw(address,uint256,uint256)": "b5c5f672",
    "withdrawalPrecompile()": "071c9308"
  },
  "id": 29
}