{
  "abi": [
    {
      "inputs": [
        {
          "internalType": "address",
          "name": "xtzPrecompile_",
          "type": "address"
        },
        {
          "internalType": "uint256",
          "name": "callsCount_",
          "type": "uint256"
        }
      ],
      "stateMutability": "nonpayable",
      "type": "constructor"
    },
    {
      "inputs": [],
      "name": "callsCount",
      "outputs": [
        {
          "internalType": "uint256",
          "name": "",
          "type": "uint256"
        }
      ],
      "stateMutability": "view",
      "type": "function"
    },
    {
      "inputs": [
        {
          "internalType": "string",
          "name": "target",
          "type": "string"
        }
      ],
      "name": "withdraw_base58",
      "outputs": [],
      "stateMutability": "payable",
      "type": "function"
    },
    {
      "inputs": [],
      "name": "xtzPrecompile",
      "outputs": [
        {
          "internalType": "address",
          "name": "",
          "type": "address"
        }
      ],
      "stateMutability": "view",
      "type": "function"
    },
    {
      "stateMutability": "payable",
      "type": "receive"
    }
  ],
  "bytecode": {
    "object": "0x608060405234801561001057600080fd5b5060405161043538038061043583398101604081905261002f91610058565b600080546001600160a01b0319166001600160a01b039390931692909217909155600155610092565b6000806040838503121561006b57600080fd5b82516001600160a01b038116811461008257600080fd5b6020939093015192949293505050565b610394806100a16000396000f3fe6080604052600436106100385760003560e01c80630be69fcd146100445780637c62dd311461006d578063cda4fee2146100a557600080fd5b3661003f57005b600080fd5b34801561005057600080fd5b5061005a60015481565b6040519081526020015b60405180910390f35b34801561007957600080fd5b5060005461008d906001600160a01b031681565b6040516001600160a01b039091168152602001610064565b6100b86100b33660046101f4565b6100ba565b005b6000816040516024016100cd91906102c9565b60408051601f198184030181529190526020810180516001600160e01b03166366d27f7160e11b179052905060015b60015481116101d957600080546001600160a01b03166101218364e8d4a51000610312565b8460405161012f919061032f565b60006040518083038185875af1925050503d806000811461016c576040519150601f19603f3d011682016040523d82523d6000602084013e610171565b606091505b50509050806101c65760405162461bcd60e51b815260206004820152601e60248201527f43616c6c20746f2074617267657420636f6e7472616374206661696c65640000604482015260640160405180910390fd5b6101d160018361034b565b9150506100fc565b505050565b634e487b7160e01b600052604160045260246000fd5b60006020828403121561020657600080fd5b813567ffffffffffffffff8082111561021e57600080fd5b818401915084601f83011261023257600080fd5b813581811115610244576102446101de565b604051601f8201601f19908116603f0116810190838211818310171561026c5761026c6101de565b8160405282815287602084870101111561028557600080fd5b826020860160208301376000928101602001929092525095945050505050565b60005b838110156102c05781810151838201526020016102a8565b50506000910152565b60208152600082518060208401526102e88160408501602087016102a5565b601f01601f19169190910160400192915050565b634e487b7160e01b600052601160045260246000fd5b8082028115828204841417610329576103296102fc565b92915050565b600082516103418184602087016102a5565b9190910192915050565b80820180821115610329576103296102fc56fea2646970667358221220c5bf835b0fc5e0729cc7fd003593473b0629853e822c6c0716908fe0691208e464736f6c63430008150033",
    "linkReferences": {}
  },
  "methodIdentifiers": {
    "callsCount()": "0be69fcd",
    "withdraw_base58(string)": "cda4fee2",
    "xtzPrecompile()": "7c62dd31"
  },
  "id": 0
}