{
  "abi": [
    {
      "anonymous": false,
      "inputs": [
        {
          "indexed": true,
          "internalType": "uint256",
          "name": "ticketHash",
          "type": "uint256"
        },
        {
          "indexed": false,
          "internalType": "address",
          "name": "ticketOwner",
          "type": "address"
        },
        {
          "indexed": false,
          "internalType": "address",
          "name": "receiver",
          "type": "address"
        },
        {
          "indexed": false,
          "internalType": "uint256",
          "name": "amount",
          "type": "uint256"
        },
        {
          "indexed": false,
          "internalType": "uint256",
          "name": "inboxLevel",
          "type": "uint256"
        },
        {
          "indexed": false,
          "internalType": "uint256",
          "name": "inboxMsgId",
          "type": "uint256"
        }
      ],
      "name": "Deposit",
      "type": "event"
    },
    {
      "anonymous": false,
      "inputs": [
        {
          "indexed": true,
          "internalType": "uint256",
          "name": "ticketHash",
          "type": "uint256"
        },
        {
          "indexed": false,
          "internalType": "address",
          "name": "sender",
          "type": "address"
        },
        {
          "indexed": false,
          "internalType": "address",
          "name": "ticketOwner",
          "type": "address"
        },
        {
          "indexed": false,
          "internalType": "bytes22",
          "name": "receiver",
          "type": "bytes22"
        },
        {
          "indexed": false,
          "internalType": "uint256",
          "name": "amount",
          "type": "uint256"
        },
        {
          "indexed": false,
          "internalType": "uint256",
          "name": "outboxLevel",
          "type": "uint256"
        },
        {
          "indexed": false,
          "internalType": "uint256",
          "name": "outboxMsgId",
          "type": "uint256"
        }
      ],
      "name": "Withdrawal",
      "type": "event"
    },
    {
      "inputs": [
        {
          "internalType": "bytes22",
          "name": "ticketer",
          "type": "bytes22"
        },
        {
          "internalType": "bytes",
          "name": "content",
          "type": "bytes"
        },
        {
          "internalType": "address",
          "name": "owner",
          "type": "address"
        }
      ],
      "name": "getBalance",
      "outputs": [
        {
          "internalType": "uint256",
          "name": "",
          "type": "uint256"
        }
      ],
      "stateMutability": "view",
      "type": "function"
    },
    {
      "inputs": [
        {
          "internalType": "address",
          "name": "ticketReceiver",
          "type": "address"
        },
        {
          "internalType": "address",
          "name": "receiver",
          "type": "address"
        },
        {
          "internalType": "uint256",
          "name": "amount",
          "type": "uint256"
        },
        {
          "internalType": "bytes22",
          "name": "ticketer",
          "type": "bytes22"
        },
        {
          "internalType": "bytes",
          "name": "identifier",
          "type": "bytes"
        }
      ],
      "name": "inboxDeposit",
      "outputs": [],
      "stateMutability": "nonpayable",
      "type": "function"
    },
    {
      "inputs": [
        {
          "internalType": "address",
          "name": "ticketOwner",
          "type": "address"
        },
        {
          "internalType": "bytes",
          "name": "routingInfo",
          "type": "bytes"
        },
        {
          "internalType": "uint256",
          "name": "amount",
          "type": "uint256"
        },
        {
          "internalType": "bytes22",
          "name": "ticketer",
          "type": "bytes22"
        },
        {
          "internalType": "bytes",
          "name": "content",
          "type": "bytes"
        }
      ],
      "name": "withdraw",
      "outputs": [],
      "stateMutability": "nonpayable",
      "type": "function"
    }
  ],
  "bytecode": {
    "object": "0x608060405234801561001057600080fd5b50610800806100206000396000f3fe608060405234801561001057600080fd5b50600436106100415760003560e01c8063148a8e62146100465780634b2520e81461005b57806380fc1fe314610080575b600080fd5b610059610054366004610566565b610093565b005b61006e6100693660046105df565b610198565b60405190815260200160405180910390f35b61005961008e36600461063d565b6101be565b8460006100a0848461033c565b90506100ae84848988610370565b600154600254604080516001600160a01b03808c1682528a1660208201529081018890526060810192909252608082015281907f7ee7a1de9c18ce695c95b8b19fbdf26cce3544e3ca9e08c9f487776783d7599f9060a00160405180910390a260016002600082825461012191906106d5565b9091555050604051630efe6a8b60e01b81526001600160a01b0387811660048301526024820187905260448201839052831690630efe6a8b90606401600060405180830381600087803b15801561017757600080fd5b505af115801561018b573d6000803e3d6000fd5b5050505050505050505050565b6000806101a68585856103ae565b60009081526005602052604090205495945050505050565b843360006101cc858561033c565b90506101da85858a896103e4565b6016875110156102315760405162461bcd60e51b815260206004820152601960248201527f526f7574696e6720696e666f20697320746f6f2073686f72740000000000000060448201526064015b60405180910390fd5b600061023c886106ee565b600354600454604080516001600160a01b0388811682528e1660208201526001600160501b0319851681830152606081018c9052608081019390935260a08301919091525191925083917f64e765b73c0829c01c6f3026a840120142d5a0b83626c548cff3a44ca5299c989181900360c00190a26001600460008282546102c391906106d5565b9091555050604051635ae2fb3960e11b81526001600160a01b038481166004830152602482018990526044820184905285169063b5c5f67290606401600060405180830381600087803b15801561031957600080fd5b505af115801561032d573d6000803e3d6000fd5b50505050505050505050505050565b60008282604051602001610351929190610755565b60408051601f1981840301815291905280516020909101209392505050565b600061037d8585856103ae565b9050816005600083815260200190815260200160002060008282546103a291906106d5565b90915550505050505050565b60008383836040516020016103c593929190610779565b6040516020818303038152906040528051906020012090509392505050565b60006103f18585856103ae565b600081815260056020526040902054909150828110156104645760405162461bcd60e51b815260206004820152602860248201527f4b65726e656c4d6f636b3a207469636b65742062616c616e6365206973206e6f6044820152670e840cadcdeeaced60c31b6064820152608401610228565b600082815260056020526040812080548592906104829084906107b7565b9091555050505050505050565b80356001600160a01b03811681146104a657600080fd5b919050565b80356001600160501b0319811681146104a657600080fd5b634e487b7160e01b600052604160045260246000fd5b600082601f8301126104ea57600080fd5b813567ffffffffffffffff80821115610505576105056104c3565b604051601f8301601f19908116603f0116810190828211818310171561052d5761052d6104c3565b8160405283815286602085880101111561054657600080fd5b836020870160208301376000602085830101528094505050505092915050565b600080600080600060a0868803121561057e57600080fd5b6105878661048f565b94506105956020870161048f565b9350604086013592506105aa606087016104ab565b9150608086013567ffffffffffffffff8111156105c657600080fd5b6105d2888289016104d9565b9150509295509295909350565b6000806000606084860312156105f457600080fd5b6105fd846104ab565b9250602084013567ffffffffffffffff81111561061957600080fd5b610625868287016104d9565b9250506106346040850161048f565b90509250925092565b600080600080600060a0868803121561065557600080fd5b61065e8661048f565b9450602086013567ffffffffffffffff8082111561067b57600080fd5b61068789838a016104d9565b95506040880135945061069c606089016104ab565b935060808801359150808211156106b257600080fd5b506105d2888289016104d9565b634e487b7160e01b600052601160045260246000fd5b808201808211156106e8576106e86106bf565b92915050565b805160208201516001600160501b0319808216929190601683101561071d5780818460160360031b1b83161693505b505050919050565b6000815160005b81811015610746576020818501810151868301520161072c565b50600093019283525090919050565b6001600160501b03198316815260006107716016830184610725565b949350505050565b6001600160501b03198416815260006107956016830185610725565b60609390931b6bffffffffffffffffffffffff19168352505060140192915050565b818103818111156106e8576106e86106bf56fea26469706673582212205914774725d3ca1520f438cc96a9cc4aacad6b8fa94218301bc22c74a911515e64736f6c63430008150033",
    "linkReferences": {}
  },
  "methodIdentifiers": {
    "getBalance(bytes22,bytes,address)": "4b2520e8",
    "inboxDeposit(address,address,uint256,bytes22,bytes)": "148a8e62",
    "withdraw(address,bytes,uint256,bytes22,bytes)": "80fc1fe3"
  },
  "id": 25
}