{
  "abi": [
    {
      "anonymous": false,
      "inputs": [
        {
          "indexed": true,
          "internalType": "uint256",
          "name": "ticketHash",
          "type": "uint256"
        },
        {
          "indexed": false,
          "internalType": "address",
          "name": "ticketOwner",
          "type": "address"
        },
        {
          "indexed": false,
          "internalType": "address",
          "name": "receiver",
          "type": "address"
        },
        {
          "indexed": false,
          "internalType": "uint256",
          "name": "amount",
          "type": "uint256"
        },
        {
          "indexed": false,
          "internalType": "uint256",
          "name": "inboxLevel",
          "type": "uint256"
        },
        {
          "indexed": false,
          "internalType": "uint256",
          "name": "inboxMsgId",
          "type": "uint256"
        }
      ],
      "name": "Deposit",
      "type": "event"
    },
    {
      "anonymous": false,
      "inputs": [
        {
          "indexed": true,
          "internalType": "uint256",
          "name": "ticketHash",
          "type": "uint256"
        },
        {
          "indexed": false,
          "internalType": "address",
          "name": "sender",
          "type": "address"
        },
        {
          "indexed": false,
          "internalType": "address",
          "name": "ticketOwner",
          "type": "address"
        },
        {
          "indexed": false,
          "internalType": "bytes22",
          "name": "receiver",
          "type": "bytes22"
        },
        {
          "indexed": false,
          "internalType": "uint256",
          "name": "amount",
          "type": "uint256"
        },
        {
          "indexed": false,
          "internalType": "uint256",
          "name": "outboxLevel",
          "type": "uint256"
        },
        {
          "indexed": false,
          "internalType": "uint256",
          "name": "outboxMsgId",
          "type": "uint256"
        }
      ],
      "name": "Withdrawal",
      "type": "event"
    },
    {
      "inputs": [
        {
          "internalType": "bytes22",
          "name": "ticketer",
          "type": "bytes22"
        },
        {
          "internalType": "bytes",
          "name": "content",
          "type": "bytes"
        },
        {
          "internalType": "address",
          "name": "owner",
          "type": "address"
        }
      ],
      "name": "getBalance",
      "outputs": [
        {
          "internalType": "uint256",
          "name": "",
          "type": "uint256"
        }
      ],
      "stateMutability": "view",
      "type": "function"
    },
    {
      "inputs": [
        {
          "internalType": "address",
          "name": "ticketReceiver",
          "type": "address"
        },
        {
          "internalType": "address",
          "name": "receiver",
          "type": "address"
        },
        {
          "internalType": "uint256",
          "name": "amount",
          "type": "uint256"
        },
        {
          "internalType": "bytes22",
          "name": "ticketer",
          "type": "bytes22"
        },
        {
          "internalType": "bytes",
          "name": "identifier",
          "type": "bytes"
        }
      ],
      "name": "inboxDeposit",
      "outputs": [],
      "stateMutability": "nonpayable",
      "type": "function"
    },
    {
      "inputs": [
        {
          "internalType": "address",
          "name": "ticketOwner",
          "type": "address"
        },
        {
          "internalType": "bytes",
          "name": "routing_info",
          "type": "bytes"
        },
        {
          "internalType": "uint256",
          "name": "amount",
          "type": "uint256"
        },
        {
          "internalType": "bytes22",
          "name": "ticketer",
          "type": "bytes22"
        },
        {
          "internalType": "bytes",
          "name": "content",
          "type": "bytes"
        }
      ],
      "name": "withdraw",
      "outputs": [],
      "stateMutability": "nonpayable",
      "type": "function"
    },
    {
      "inputs": [
        {
          "internalType": "string",
          "name": "target",
          "type": "string"
        }
      ],
      "name": "withdraw_base58",
      "outputs": [],
      "stateMutability": "payable",
      "type": "function"
    }
  ],
  "bytecode": {
    "object": "0x608060405234801561001057600080fd5b5061088c806100206000396000f3fe60806040526004361061003f5760003560e01c8063148a8e62146100445780634b2520e81461006657806380fc1fe314610098578063cda4fee2146100b8575b600080fd5b34801561005057600080fd5b5061006461005f3660046105af565b6100c9565b005b34801561007257600080fd5b50610086610081366004610628565b6101ce565b60405190815260200160405180910390f35b3480156100a457600080fd5b506100646100b3366004610686565b6101f4565b6100646100c6366004610708565b50565b8460006100d68484610372565b90506100e4848489886103a9565b600154600254604080516001600160a01b03808c1682528a1660208201529081018890526060810192909252608082015281907f7ee7a1de9c18ce695c95b8b19fbdf26cce3544e3ca9e08c9f487776783d7599f9060a00160405180910390a2600160026000828254610157919061076f565b9091555050604051630efe6a8b60e01b81526001600160a01b0387811660048301526024820187905260448201839052831690630efe6a8b90606401600060405180830381600087803b1580156101ad57600080fd5b505af11580156101c1573d6000803e3d6000fd5b5050505050505050505050565b6000806101dc8585856103e7565b60009081526005602052604090205495945050505050565b843360006102028585610372565b905061021085858a8961041d565b6016875110156102675760405162461bcd60e51b815260206004820152601d60248201527f5265636569766572206164647265737320697320746f6f2073686f727400000060448201526064015b60405180910390fd5b600061027288610782565b600354600454604080516001600160a01b0388811682528e1660208201526001600160501b0319851681830152606081018c9052608081019390935260a08301919091525191925083917f64e765b73c0829c01c6f3026a840120142d5a0b83626c548cff3a44ca5299c989181900360c00190a26001600460008282546102f9919061076f565b9091555050604051635ae2fb3960e11b81526001600160a01b038481166004830152602482018990526044820184905285169063b5c5f67290606401600060405180830381600087803b15801561034f57600080fd5b505af1158015610363573d6000803e3d6000fd5b50505050505050505050505050565b600082826040516020016103879291906107e9565b6040516020818303038152906040528051906020012060001c90505b92915050565b60006103b68585856103e7565b9050816005600083815260200190815260200160002060008282546103db919061076f565b90915550505050505050565b60008383836040516020016103fe93929190610805565b6040516020818303038152906040528051906020012090509392505050565b600061042a8585856103e7565b6000818152600560205260409020549091508281101561049d5760405162461bcd60e51b815260206004820152602860248201527f4b65726e656c4d6f636b3a207469636b65742062616c616e6365206973206e6f6044820152670e840cadcdeeaced60c31b606482015260840161025e565b600082815260056020526040812080548592906104bb908490610843565b9091555050505050505050565b80356001600160a01b03811681146104df57600080fd5b919050565b80356001600160501b0319811681146104df57600080fd5b634e487b7160e01b600052604160045260246000fd5b600067ffffffffffffffff8084111561052d5761052d6104fc565b604051601f8501601f19908116603f01168101908282118183101715610555576105556104fc565b8160405280935085815286868601111561056e57600080fd5b858560208301376000602087830101525050509392505050565b600082601f83011261059957600080fd5b6105a883833560208501610512565b9392505050565b600080600080600060a086880312156105c757600080fd5b6105d0866104c8565b94506105de602087016104c8565b9350604086013592506105f3606087016104e4565b9150608086013567ffffffffffffffff81111561060f57600080fd5b61061b88828901610588565b9150509295509295909350565b60008060006060848603121561063d57600080fd5b610646846104e4565b9250602084013567ffffffffffffffff81111561066257600080fd5b61066e86828701610588565b92505061067d604085016104c8565b90509250925092565b600080600080600060a0868803121561069e57600080fd5b6106a7866104c8565b9450602086013567ffffffffffffffff808211156106c457600080fd5b6106d089838a01610588565b9550604088013594506106e5606089016104e4565b935060808801359150808211156106fb57600080fd5b5061061b88828901610588565b60006020828403121561071a57600080fd5b813567ffffffffffffffff81111561073157600080fd5b8201601f8101841361074257600080fd5b61075184823560208401610512565b949350505050565b634e487b7160e01b600052601160045260246000fd5b808201808211156103a3576103a3610759565b805160208201516001600160501b031980821692919060168310156107b15780818460160360031b1b83161693505b505050919050565b6000815160005b818110156107da57602081850181015186830152016107c0565b50600093019283525090919050565b6001600160501b031983168152600061075160168301846107b9565b6001600160501b031984168152600061082160168301856107b9565b60609390931b6bffffffffffffffffffffffff19168352505060140192915050565b818103818111156103a3576103a361075956fea2646970667358221220692acb4b9fa58a3a4ab49a62f284041e220eb3b4a5e09e50d16a62eabc38dc0164736f6c63430008150033",
    "linkReferences": {}
  },
  "methodIdentifiers": {
    "getBalance(bytes22,bytes,address)": "4b2520e8",
    "inboxDeposit(address,address,uint256,bytes22,bytes)": "148a8e62",
    "withdraw(address,bytes,uint256,bytes22,bytes)": "80fc1fe3",
    "withdraw_base58(string)": "cda4fee2"
  },
  "id": 27
}