{
  "abi": [
    {
      "anonymous": false,
      "inputs": [
        {
          "indexed": true,
          "internalType": "uint256",
          "name": "ticketHash",
          "type": "uint256"
        },
        {
          "indexed": false,
          "internalType": "address",
          "name": "ticketOwner",
          "type": "address"
        },
        {
          "indexed": false,
          "internalType": "address",
          "name": "receiver",
          "type": "address"
        },
        {
          "indexed": false,
          "internalType": "uint256",
          "name": "amount",
          "type": "uint256"
        },
        {
          "indexed": false,
          "internalType": "uint256",
          "name": "inboxLevel",
          "type": "uint256"
        },
        {
          "indexed": false,
          "internalType": "uint256",
          "name": "inboxMsgId",
          "type": "uint256"
        }
      ],
      "name": "Deposit",
      "type": "event"
    },
    {
      "anonymous": false,
      "inputs": [
        {
          "indexed": true,
          "internalType": "uint256",
          "name": "ticketHash",
          "type": "uint256"
        },
        {
          "indexed": false,
          "internalType": "address",
          "name": "sender",
          "type": "address"
        },
        {
          "indexed": false,
          "internalType": "address",
          "name": "ticketOwner",
          "type": "address"
        },
        {
          "indexed": false,
          "internalType": "bytes22",
          "name": "receiver",
          "type": "bytes22"
        },
        {
          "indexed": false,
          "internalType": "uint256",
          "name": "amount",
          "type": "uint256"
        },
        {
          "indexed": false,
          "internalType": "uint256",
          "name": "withdrawalId",
          "type": "uint256"
        }
      ],
      "name": "Withdrawal",
      "type": "event"
    },
    {
      "inputs": [
        {
          "internalType": "bytes22",
          "name": "ticketer",
          "type": "bytes22"
        },
        {
          "internalType": "bytes",
          "name": "content",
          "type": "bytes"
        },
        {
          "internalType": "address",
          "name": "owner",
          "type": "address"
        }
      ],
      "name": "getBalance",
      "outputs": [
        {
          "internalType": "uint256",
          "name": "",
          "type": "uint256"
        }
      ],
      "stateMutability": "view",
      "type": "function"
    },
    {
      "inputs": [
        {
          "internalType": "address",
          "name": "ticketReceiver",
          "type": "address"
        },
        {
          "internalType": "address",
          "name": "receiver",
          "type": "address"
        },
        {
          "internalType": "uint256",
          "name": "amount",
          "type": "uint256"
        },
        {
          "internalType": "bytes22",
          "name": "ticketer",
          "type": "bytes22"
        },
        {
          "internalType": "bytes",
          "name": "identifier",
          "type": "bytes"
        }
      ],
      "name": "inboxDeposit",
      "outputs": [],
      "stateMutability": "nonpayable",
      "type": "function"
    },
    {
      "inputs": [
        {
          "internalType": "address",
          "name": "ticketOwner",
          "type": "address"
        },
        {
          "internalType": "bytes",
          "name": "routingInfo",
          "type": "bytes"
        },
        {
          "internalType": "uint256",
          "name": "amount",
          "type": "uint256"
        },
        {
          "internalType": "bytes22",
          "name": "ticketer",
          "type": "bytes22"
        },
        {
          "internalType": "bytes",
          "name": "content",
          "type": "bytes"
        }
      ],
      "name": "withdraw",
      "outputs": [],
      "stateMutability": "nonpayable",
      "type": "function"
    },
    {
      "inputs": [
        {
          "internalType": "string",
          "name": "target",
          "type": "string"
        }
      ],
      "name": "withdraw_base58",
      "outputs": [],
      "stateMutability": "payable",
      "type": "function"
    }
  ],
  "bytecode": {
    "object": "0x608060405234801561001057600080fd5b50610884806100206000396000f3fe60806040526004361061003f5760003560e01c8063148a8e62146100445780634b2520e81461006657806380fc1fe314610098578063cda4fee2146100b8575b600080fd5b34801561005057600080fd5b5061006461005f3660046105a1565b6100c9565b005b34801561007257600080fd5b5061008661008136600461061a565b6101ce565b60405190815260200160405180910390f35b3480156100a457600080fd5b506100646100b3366004610678565b6101f4565b6100646100c63660046106fa565b50565b8460006100d68484610367565b90506100e48484898861039b565b600154600254604080516001600160a01b03808c1682528a1660208201529081018890526060810192909252608082015281907f7ee7a1de9c18ce695c95b8b19fbdf26cce3544e3ca9e08c9f487776783d7599f9060a00160405180910390a26001600260008282546101579190610761565b9091555050604051630efe6a8b60e01b81526001600160a01b0387811660048301526024820187905260448201839052831690630efe6a8b90606401600060405180830381600087803b1580156101ad57600080fd5b505af11580156101c1573d6000803e3d6000fd5b5050505050505050505050565b6000806101dc8585856103d9565b60009081526004602052604090205495945050505050565b843360006102028585610367565b905061021085858a8961040f565b6016875110156102675760405162461bcd60e51b815260206004820152601960248201527f526f7574696e6720696e666f20697320746f6f2073686f72740000000000000060448201526064015b60405180910390fd5b60006102728861077a565b600354604080516001600160a01b0387811682528d1660208201526001600160501b0319841681830152606081018b905260808101929092525191925083917f589b38feb5b5559d564ed81012950893bfc35db66a90524d70410d1c15c8e56c9181900360a00190a26001600360008282546102ee9190610761565b9091555050604051635ae2fb3960e11b81526001600160a01b038481166004830152602482018990526044820184905285169063b5c5f67290606401600060405180830381600087803b15801561034457600080fd5b505af1158015610358573d6000803e3d6000fd5b50505050505050505050505050565b6000828260405160200161037c9291906107e1565b60408051601f1981840301815291905280516020909101209392505050565b60006103a88585856103d9565b9050816004600083815260200190815260200160002060008282546103cd9190610761565b90915550505050505050565b60008383836040516020016103f0939291906107fd565b6040516020818303038152906040528051906020012090509392505050565b600061041c8585856103d9565b6000818152600460205260409020549091508281101561048f5760405162461bcd60e51b815260206004820152602860248201527f4b65726e656c4d6f636b3a207469636b65742062616c616e6365206973206e6f6044820152670e840cadcdeeaced60c31b606482015260840161025e565b600082815260046020526040812080548592906104ad90849061083b565b9091555050505050505050565b80356001600160a01b03811681146104d157600080fd5b919050565b80356001600160501b0319811681146104d157600080fd5b634e487b7160e01b600052604160045260246000fd5b600067ffffffffffffffff8084111561051f5761051f6104ee565b604051601f8501601f19908116603f01168101908282118183101715610547576105476104ee565b8160405280935085815286868601111561056057600080fd5b858560208301376000602087830101525050509392505050565b600082601f83011261058b57600080fd5b61059a83833560208501610504565b9392505050565b600080600080600060a086880312156105b957600080fd5b6105c2866104ba565b94506105d0602087016104ba565b9350604086013592506105e5606087016104d6565b9150608086013567ffffffffffffffff81111561060157600080fd5b61060d8882890161057a565b9150509295509295909350565b60008060006060848603121561062f57600080fd5b610638846104d6565b9250602084013567ffffffffffffffff81111561065457600080fd5b6106608682870161057a565b92505061066f604085016104ba565b90509250925092565b600080600080600060a0868803121561069057600080fd5b610699866104ba565b9450602086013567ffffffffffffffff808211156106b657600080fd5b6106c289838a0161057a565b9550604088013594506106d7606089016104d6565b935060808801359150808211156106ed57600080fd5b5061060d8882890161057a565b60006020828403121561070c57600080fd5b813567ffffffffffffffff81111561072357600080fd5b8201601f8101841361073457600080fd5b61074384823560208401610504565b949350505050565b634e487b7160e01b600052601160045260246000fd5b808201808211156107745761077461074b565b92915050565b805160208201516001600160501b031980821692919060168310156107a95780818460160360031b1b83161693505b505050919050565b6000815160005b818110156107d257602081850181015186830152016107b8565b50600093019283525090919050565b6001600160501b031983168152600061074360168301846107b1565b6001600160501b031984168152600061081960168301856107b1565b60609390931b6bffffffffffffffffffffffff19168352505060140192915050565b818103818111156107745761077461074b56fea2646970667358221220f8e60400136d923ba668412da53b8ec544dfbd01d2bdd66fe79b207b0c03baf864736f6c63430008150033",
    "linkReferences": {}
  },
  "methodIdentifiers": {
    "getBalance(bytes22,bytes,address)": "4b2520e8",
    "inboxDeposit(address,address,uint256,bytes22,bytes)": "148a8e62",
    "withdraw(address,bytes,uint256,bytes22,bytes)": "80fc1fe3",
    "withdraw_base58(string)": "cda4fee2"
  },
  "id": 28
}