{
  "abi": [
    {
      "inputs": [
        {
          "internalType": "address",
          "name": "xtzPrecompile_",
          "type": "address"
        },
        {
          "internalType": "string",
          "name": "target_",
          "type": "string"
        }
      ],
      "stateMutability": "nonpayable",
      "type": "constructor"
    },
    {
      "inputs": [],
      "name": "target",
      "outputs": [
        {
          "internalType": "string",
          "name": "",
          "type": "string"
        }
      ],
      "stateMutability": "view",
      "type": "function"
    },
    {
      "inputs": [],
      "name": "xtzPrecompile",
      "outputs": [
        {
          "internalType": "address",
          "name": "",
          "type": "address"
        }
      ],
      "stateMutability": "view",
      "type": "function"
    },
    {
      "stateMutability": "payable",
      "type": "receive"
    }
  ],
  "bytecode": {
    "object": "0x608060405234801561001057600080fd5b5060405161066138038061066183398101604081905261002f91610074565b600080546001600160a01b0319166001600160a01b038416179055600161005682826101e6565b5050506102a5565b634e487b7160e01b600052604160045260246000fd5b6000806040838503121561008757600080fd5b82516001600160a01b038116811461009e57600080fd5b602084810151919350906001600160401b03808211156100bd57600080fd5b818601915086601f8301126100d157600080fd5b8151818111156100e3576100e361005e565b604051601f8201601f19908116603f0116810190838211818310171561010b5761010b61005e565b81604052828152898684870101111561012357600080fd5b600093505b828410156101455784840186015181850187015292850192610128565b60008684830101528096505050505050509250929050565b600181811c9082168061017157607f821691505b60208210810361019157634e487b7160e01b600052602260045260246000fd5b50919050565b601f8211156101e157600081815260208120601f850160051c810160208610156101be5750805b601f850160051c820191505b818110156101dd578281556001016101ca565b5050505b505050565b81516001600160401b038111156101ff576101ff61005e565b6102138161020d845461015d565b84610197565b602080601f83116001811461024857600084156102305750858301515b600019600386901b1c1916600185901b1785556101dd565b600085815260208120601f198616915b8281101561027757888601518255948401946001909101908401610258565b50858210156102955787850151600019600388901b60f8161c191681555b5050505050600190811b01905550565b6103ad806102b46000396000f3fe60806040526004361061002d5760003560e01c80637c62dd3114610131578063d4b839921461016e57600080fd5b3661012c57600060016040516024016100469190610258565b60408051601f198184030181529181526020820180516001600160e01b03166366d27f7160e11b179052600080549151929350916001600160a01b03909116903490610093908590610328565b60006040518083038185875af1925050503d80600081146100d0576040519150601f19603f3d011682016040523d82523d6000602084013e6100d5565b606091505b505090508061012a5760405162461bcd60e51b815260206004820152601e60248201527f43616c6c20746f2074617267657420636f6e7472616374206661696c65640000604482015260640160405180910390fd5b005b600080fd5b34801561013d57600080fd5b50600054610151906001600160a01b031681565b6040516001600160a01b0390911681526020015b60405180910390f35b34801561017a57600080fd5b50610183610190565b6040516101659190610344565b6001805461019d9061021e565b80601f01602080910402602001604051908101604052809291908181526020018280546101c99061021e565b80156102165780601f106101eb57610100808354040283529160200191610216565b820191906000526020600020905b8154815290600101906020018083116101f957829003601f168201915b505050505081565b600181811c9082168061023257607f821691505b60208210810361025257634e487b7160e01b600052602260045260246000fd5b50919050565b600060208083526000845481600182811c91508083168061027a57607f831692505b858310810361029757634e487b7160e01b85526022600452602485fd5b8786018381526020018180156102b457600181146102ca576102f5565b60ff198616825284151560051b820196506102f5565b60008b81526020902060005b868110156102ef578154848201529085019089016102d6565b83019750505b50949998505050505050505050565b60005b8381101561031f578181015183820152602001610307565b50506000910152565b6000825161033a818460208701610304565b9190910192915050565b6020815260008251806020840152610363816040850160208701610304565b601f01601f1916919091016040019291505056fea2646970667358221220a4d6aacfe2a9617d58b496963b13856636e052da6157745a1206bca9aa48bb1e64736f6c63430008150033",
    "linkReferences": {}
  },
  "methodIdentifiers": {
    "target()": "d4b83992",
    "xtzPrecompile()": "7c62dd31"
  },
  "id": 24
}