{
  "abi": [
    {
      "inputs": [
        {
          "internalType": "address",
          "name": "_kernel_address",
          "type": "address"
        }
      ],
      "stateMutability": "nonpayable",
      "type": "constructor"
    },
    {
      "anonymous": false,
      "inputs": [
        {
          "indexed": false,
          "internalType": "uint256",
          "name": "num",
          "type": "uint256"
        }
      ],
      "name": "LogEvent",
      "type": "event"
    },
    {
      "inputs": [],
      "name": "kernel_address",
      "outputs": [
        {
          "internalType": "address",
          "name": "",
          "type": "address"
        }
      ],
      "stateMutability": "view",
      "type": "function"
    },
    {
      "inputs": [
        {
          "internalType": "address",
          "name": "ticketOwner",
          "type": "address"
        },
        {
          "internalType": "bytes",
          "name": "routing_info",
          "type": "bytes"
        },
        {
          "internalType": "uint256",
          "name": "amount",
          "type": "uint256"
        },
        {
          "internalType": "bytes22",
          "name": "ticketer",
          "type": "bytes22"
        },
        {
          "internalType": "bytes",
          "name": "content",
          "type": "bytes"
        }
      ],
      "name": "withdraw",
      "outputs": [],
      "stateMutability": "nonpayable",
      "type": "function"
    }
  ],
  "bytecode": {
    "object": "0x608060405234801561001057600080fd5b5060405161042638038061042683398101604081905261002f91610054565b600080546001600160a01b0319166001600160a01b0392909216919091179055610084565b60006020828403121561006657600080fd5b81516001600160a01b038116811461007d57600080fd5b9392505050565b610393806100936000396000f3fe608060405234801561001057600080fd5b50600436106100365760003560e01c806380fc1fe31461003b578063d79bed7b14610050575b600080fd5b61004e61004936600461020b565b61007f565b005b600054610063906001600160a01b031681565b6040516001600160a01b03909116815260200160405180910390f35b600080546040519182526001600160a01b0316907f0d5b8c6bf25c91c97d40ed63083add3a0727649631fdd48f48b291a7293136229060200160405180910390a16040516380fc1fe360e01b81526001600160a01b038216906380fc1fe3906100f49089908990899089908990600401610302565b600060405180830381600087803b15801561010e57600080fd5b505af1158015610122573d6000803e3d6000fd5b505050507f0d5b8c6bf25c91c97d40ed63083add3a0727649631fdd48f48b291a729313622600160405161015891815260200190565b60405180910390a1505050505050565b634e487b7160e01b600052604160045260246000fd5b600082601f83011261018f57600080fd5b813567ffffffffffffffff808211156101aa576101aa610168565b604051601f8301601f19908116603f011681019082821181831017156101d2576101d2610168565b816040528381528660208588010111156101eb57600080fd5b836020870160208301376000602085830101528094505050505092915050565b600080600080600060a0868803121561022357600080fd5b85356001600160a01b038116811461023a57600080fd5b9450602086013567ffffffffffffffff8082111561025757600080fd5b61026389838a0161017e565b9550604088013594506060880135915069ffffffffffffffffffff198216821461028c57600080fd5b909250608087013590808211156102a257600080fd5b506102af8882890161017e565b9150509295509295909350565b6000815180845260005b818110156102e2576020818501810151868301820152016102c6565b506000602082860101526020601f19601f83011685010191505092915050565b6001600160a01b038616815260a060208201819052600090610326908301876102bc565b85604084015269ffffffffffffffffffff1985166060840152828103608084015261035181856102bc565b9897505050505050505056fea2646970667358221220a28bdcb8f08977d12f22834fcdc3628aec1b89b2cf4e4d34130be619406852d164736f6c63430008150033",
    "linkReferences": {}
  },
  "methodIdentifiers": {
    "kernel_address()": "d79bed7b",
    "withdraw(address,bytes,uint256,bytes22,bytes)": "80fc1fe3"
  },
  "id": 22
}