{
  "abi": [
    {
      "inputs": [
        {
          "internalType": "address",
          "name": "faPrecompile_",
          "type": "address"
        },
        {
          "internalType": "address",
          "name": "xtzPrecompile_",
          "type": "address"
        },
        {
          "internalType": "uint256",
          "name": "callsCount_",
          "type": "uint256"
        }
      ],
      "stateMutability": "nonpayable",
      "type": "constructor"
    },
    {
      "inputs": [],
      "name": "callsCount",
      "outputs": [
        {
          "internalType": "uint256",
          "name": "",
          "type": "uint256"
        }
      ],
      "stateMutability": "view",
      "type": "function"
    },
    {
      "inputs": [],
      "name": "faPrecompile",
      "outputs": [
        {
          "internalType": "address",
          "name": "",
          "type": "address"
        }
      ],
      "stateMutability": "view",
      "type": "function"
    },
    {
      "inputs": [
        {
          "internalType": "address",
          "name": "ticketOwner",
          "type": "address"
        },
        {
          "internalType": "bytes",
          "name": "routingInfo",
          "type": "bytes"
        },
        {
          "internalType": "uint256",
          "name": "amount",
          "type": "uint256"
        },
        {
          "internalType": "bytes22",
          "name": "ticketer",
          "type": "bytes22"
        },
        {
          "internalType": "bytes",
          "name": "content",
          "type": "bytes"
        }
      ],
      "name": "withdraw",
      "outputs": [],
      "stateMutability": "nonpayable",
      "type": "function"
    },
    {
      "inputs": [
        {
          "internalType": "string",
          "name": "target",
          "type": "string"
        }
      ],
      "name": "withdraw_base58",
      "outputs": [],
      "stateMutability": "payable",
      "type": "function"
    },
    {
      "inputs": [],
      "name": "xtzPrecompile",
      "outputs": [
        {
          "internalType": "address",
          "name": "",
          "type": "address"
        }
      ],
      "stateMutability": "view",
      "type": "function"
    },
    {
      "stateMutability": "payable",
      "type": "receive"
    }
  ],
  "bytecode": {
    "object": "0x608060405234801561001057600080fd5b5060405161067138038061067183398101604081905261002f91610083565b600080546001600160a01b039485166001600160a01b03199182161790915560018054939094169216919091179091556002556100bf565b80516001600160a01b038116811461007e57600080fd5b919050565b60008060006060848603121561009857600080fd5b6100a184610067565b92506100af60208501610067565b9150604084015190509250925092565b6105a3806100ce6000396000f3fe60806040526004361061004e5760003560e01c80630be69fcd1461005a57806334b2e495146100835780637c62dd31146100bb57806380fc1fe3146100db578063cda4fee2146100fd57600080fd5b3661005557005b600080fd5b34801561006657600080fd5b5061007060025481565b6040519081526020015b60405180910390f35b34801561008f57600080fd5b506000546100a3906001600160a01b031681565b6040516001600160a01b03909116815260200161007a565b3480156100c757600080fd5b506001546100a3906001600160a01b031681565b3480156100e757600080fd5b506100fb6100f636600461036a565b610110565b005b6100fb61010b36600461041b565b61017e565b6000858585858560405160240161012b9594939291906104bc565b60408051601f198184030181529190526020810180516001600160e01b03166380fc1fe360e01b17905260008054600254929350610176926001600160a01b039091169184916101e1565b505050505050565b6000816040516024016101919190610517565b60408051601f198184030181529190526020810180516001600160e01b03166366d27f7160e11b1790526001546002549192506101dd916001600160a01b0390911690839034906101e1565b5050565b60015b8181116102b0576000856001600160a01b03168486604051610206919061052a565b60006040518083038185875af1925050503d8060008114610243576040519150601f19603f3d011682016040523d82523d6000602084013e610248565b606091505b505090508061029d5760405162461bcd60e51b815260206004820152601e60248201527f43616c6c20746f2074617267657420636f6e7472616374206661696c65640000604482015260640160405180910390fd5b6102a8600183610546565b9150506101e4565b5050505050565b634e487b7160e01b600052604160045260246000fd5b600067ffffffffffffffff808411156102e8576102e86102b7565b604051601f8501601f19908116603f01168101908282118183101715610310576103106102b7565b8160405280935085815286868601111561032957600080fd5b858560208301376000602087830101525050509392505050565b600082601f83011261035457600080fd5b610363838335602085016102cd565b9392505050565b600080600080600060a0868803121561038257600080fd5b85356001600160a01b038116811461039957600080fd5b9450602086013567ffffffffffffffff808211156103b657600080fd5b6103c289838a01610343565b9550604088013594506060880135915069ffffffffffffffffffff19821682146103eb57600080fd5b9092506080870135908082111561040157600080fd5b5061040e88828901610343565b9150509295509295909350565b60006020828403121561042d57600080fd5b813567ffffffffffffffff81111561044457600080fd5b8201601f8101841361045557600080fd5b610464848235602084016102cd565b949350505050565b60005b8381101561048757818101518382015260200161046f565b50506000910152565b600081518084526104a881602086016020860161046c565b601f01601f19169290920160200192915050565b6001600160a01b038616815260a0602082018190526000906104e090830187610490565b85604084015269ffffffffffffffffffff1985166060840152828103608084015261050b8185610490565b98975050505050505050565b6020815260006103636020830184610490565b6000825161053c81846020870161046c565b9190910192915050565b8082018082111561056757634e487b7160e01b600052601160045260246000fd5b9291505056fea2646970667358221220e86bae5b430ab3f2f78c4bcbacd848a0fc4d0acd09c254814540a3bafd63620a64736f6c63430008150033",
    "linkReferences": {}
  },
  "methodIdentifiers": {
    "callsCount()": "0be69fcd",
    "faPrecompile()": "34b2e495",
    "withdraw(address,bytes,uint256,bytes22,bytes)": "80fc1fe3",
    "withdraw_base58(string)": "cda4fee2",
    "xtzPrecompile()": "7c62dd31"
  },
  "id": 23
}