{
  "abi": [
    {
      "inputs": [
        {
          "internalType": "address",
          "name": "_kernel_address",
          "type": "address"
        }
      ],
      "stateMutability": "nonpayable",
      "type": "constructor"
    },
    {
      "inputs": [],
      "name": "kernel_address",
      "outputs": [
        {
          "internalType": "address",
          "name": "",
          "type": "address"
        }
      ],
      "stateMutability": "view",
      "type": "function"
    },
    {
      "inputs": [
        {
          "internalType": "address",
          "name": "ticketOwner",
          "type": "address"
        },
        {
          "internalType": "bytes",
          "name": "routing_info",
          "type": "bytes"
        },
        {
          "internalType": "uint256",
          "name": "amount",
          "type": "uint256"
        },
        {
          "internalType": "bytes22",
          "name": "ticketer",
          "type": "bytes22"
        },
        {
          "internalType": "bytes",
          "name": "content",
          "type": "bytes"
        }
      ],
      "name": "withdraw",
      "outputs": [],
      "stateMutability": "nonpayable",
      "type": "function"
    }
  ],
  "bytecode": {
    "object": "0x608060405234801561001057600080fd5b5060405161047d38038061047d83398101604081905261002f91610054565b600080546001600160a01b0319166001600160a01b0392909216919091179055610084565b60006020828403121561006657600080fd5b81516001600160a01b038116811461007d57600080fd5b9392505050565b6103ea806100936000396000f3fe608060405234801561001057600080fd5b50600436106100365760003560e01c806380fc1fe31461003b578063d79bed7b14610050575b600080fd5b61004e610049366004610262565b61007f565b005b600054610063906001600160a01b031681565b6040516001600160a01b03909116815260200160405180910390f35b6000546040516380fc1fe360e01b81526001600160a01b039091169081906380fc1fe3906100b99089908990899089908990600401610359565b600060405180830381600087803b1580156100d357600080fd5b505af11580156100e7573d6000803e3d6000fd5b50506040516380fc1fe360e01b81526001600160a01b03841692506380fc1fe3915061011f9089908990899089908990600401610359565b600060405180830381600087803b15801561013957600080fd5b505af115801561014d573d6000803e3d6000fd5b50506040516380fc1fe360e01b81526001600160a01b03841692506380fc1fe391506101859089908990899089908990600401610359565b600060405180830381600087803b15801561019f57600080fd5b505af11580156101b3573d6000803e3d6000fd5b50505050505050505050565b634e487b7160e01b600052604160045260246000fd5b600082601f8301126101e657600080fd5b813567ffffffffffffffff80821115610201576102016101bf565b604051601f8301601f19908116603f01168101908282118183101715610229576102296101bf565b8160405283815286602085880101111561024257600080fd5b836020870160208301376000602085830101528094505050505092915050565b600080600080600060a0868803121561027a57600080fd5b85356001600160a01b038116811461029157600080fd5b9450602086013567ffffffffffffffff808211156102ae57600080fd5b6102ba89838a016101d5565b9550604088013594506060880135915069ffffffffffffffffffff19821682146102e357600080fd5b909250608087013590808211156102f957600080fd5b50610306888289016101d5565b9150509295509295909350565b6000815180845260005b818110156103395760208185018101518683018201520161031d565b506000602082860101526020601f19601f83011685010191505092915050565b6001600160a01b038616815260a06020820181905260009061037d90830187610313565b85604084015269ffffffffffffffffffff198516606084015282810360808401526103a88185610313565b9897505050505050505056fea26469706673582212201dcfb74971ff1ebbf5307fbf72c98acb1d329a66f1a4572d7549625da4d29d2464736f6c63430008150033",
    "linkReferences": {}
  },
  "methodIdentifiers": {
    "kernel_address()": "d79bed7b",
    "withdraw(address,bytes,uint256,bytes22,bytes)": "80fc1fe3"
  },
  "id": 22
}