{
  "abi": [
    {
      "inputs": [
        {
          "internalType": "address",
          "name": "fa_precompile_",
          "type": "address"
        },
        {
          "internalType": "address",
          "name": "native_precompile_",
          "type": "address"
        }
      ],
      "stateMutability": "nonpayable",
      "type": "constructor"
    },
    {
      "anonymous": false,
      "inputs": [
        {
          "indexed": false,
          "internalType": "uint256",
          "name": "num",
          "type": "uint256"
        }
      ],
      "name": "LogEvent",
      "type": "event"
    },
    {
      "inputs": [
        {
          "internalType": "address",
          "name": "ticketOwner",
          "type": "address"
        },
        {
          "internalType": "bytes",
          "name": "routing_info",
          "type": "bytes"
        },
        {
          "internalType": "uint256",
          "name": "amount",
          "type": "uint256"
        },
        {
          "internalType": "bytes22",
          "name": "ticketer",
          "type": "bytes22"
        },
        {
          "internalType": "bytes",
          "name": "content",
          "type": "bytes"
        }
      ],
      "name": "withdraw",
      "outputs": [],
      "stateMutability": "nonpayable",
      "type": "function"
    },
    {
      "inputs": [
        {
          "internalType": "string",
          "name": "target",
          "type": "string"
        }
      ],
      "name": "withdraw_base58",
      "outputs": [],
      "stateMutability": "payable",
      "type": "function"
    }
  ],
  "bytecode": {
    "object": "0x608060405234801561001057600080fd5b5060405161055238038061055283398101604081905261002f9161007c565b600080546001600160a01b039384166001600160a01b031991821617909155600180549290931691161790556100af565b80516001600160a01b038116811461007757600080fd5b919050565b6000806040838503121561008f57600080fd5b61009883610060565b91506100a660208401610060565b90509250929050565b610494806100be6000396000f3fe6080604052600436106100295760003560e01c806380fc1fe31461002e578063cda4fee214610050575b600080fd5b34801561003a57600080fd5b5061004e610049366004610288565b610063565b005b61004e61005e366004610339565b610121565b6040516000815260008051602061043f8339815191529060200160405180910390a16000546040516380fc1fe360e01b81526001600160a01b039091169081906380fc1fe3906100bf90899089908990899089906004016103d0565b600060405180830381600087803b1580156100d957600080fd5b505af11580156100ed573d6000803e3d6000fd5b5050505060008051602061043f833981519152600160405161011191815260200190565b60405180910390a1505050505050565b6040516000815260008051602061043f8339815191529060200160405180910390a16001546040516366d27f7160e11b81526001600160a01b0390911690819063cda4fee290349061017790869060040161042b565b6000604051808303818588803b15801561019057600080fd5b505af11580156101a4573d6000803e3d6000fd5b505050505060008051602061043f83398151915260026040516101c991815260200190565b60405180910390a15050565b634e487b7160e01b600052604160045260246000fd5b600067ffffffffffffffff80841115610206576102066101d5565b604051601f8501601f19908116603f0116810190828211818310171561022e5761022e6101d5565b8160405280935085815286868601111561024757600080fd5b858560208301376000602087830101525050509392505050565b600082601f83011261027257600080fd5b610281838335602085016101eb565b9392505050565b600080600080600060a086880312156102a057600080fd5b85356001600160a01b03811681146102b757600080fd5b9450602086013567ffffffffffffffff808211156102d457600080fd5b6102e089838a01610261565b9550604088013594506060880135915069ffffffffffffffffffff198216821461030957600080fd5b9092506080870135908082111561031f57600080fd5b5061032c88828901610261565b9150509295509295909350565b60006020828403121561034b57600080fd5b813567ffffffffffffffff81111561036257600080fd5b8201601f8101841361037357600080fd5b610382848235602084016101eb565b949350505050565b6000815180845260005b818110156103b057602081850181015186830182015201610394565b506000602082860101526020601f19601f83011685010191505092915050565b6001600160a01b038616815260a0602082018190526000906103f49083018761038a565b85604084015269ffffffffffffffffffff1985166060840152828103608084015261041f818561038a565b98975050505050505050565b602081526000610281602083018461038a56fe0d5b8c6bf25c91c97d40ed63083add3a0727649631fdd48f48b291a729313622a2646970667358221220b5d063bb1329c9f1ed8f27913b820b82d3313f380918871989940d4db6ccce6364736f6c63430008150033",
    "linkReferences": {}
  },
  "methodIdentifiers": {
    "withdraw(address,bytes,uint256,bytes22,bytes)": "80fc1fe3",
    "withdraw_base58(string)": "cda4fee2"
  },
  "id": 22
}