{
  "abi": [
    {
      "inputs": [
        {
          "internalType": "address",
          "name": "_kernel",
          "type": "address"
        }
      ],
      "stateMutability": "nonpayable",
      "type": "constructor"
    },
    {
      "inputs": [],
      "name": "kernel",
      "outputs": [
        {
          "internalType": "contract IWithdraw",
          "name": "",
          "type": "address"
        }
      ],
      "stateMutability": "view",
      "type": "function"
    },
    {
      "inputs": [
        {
          "internalType": "address",
          "name": "ticketOwner",
          "type": "address"
        },
        {
          "internalType": "bytes",
          "name": "receiver",
          "type": "bytes"
        },
        {
          "internalType": "uint256",
          "name": "amount",
          "type": "uint256"
        },
        {
          "internalType": "bytes22",
          "name": "ticketer",
          "type": "bytes22"
        },
        {
          "internalType": "bytes",
          "name": "content",
          "type": "bytes"
        }
      ],
      "name": "withdraw",
      "outputs": [],
      "stateMutability": "nonpayable",
      "type": "function"
    }
  ],
  "bytecode": {
    "object": "0x608060405234801561001057600080fd5b5060405161048238038061048283398101604081905261002f91610054565b600080546001600160a01b0319166001600160a01b0392909216919091179055610084565b60006020828403121561006657600080fd5b81516001600160a01b038116811461007d57600080fd5b9392505050565b6103ef806100936000396000f3fe608060405234801561001057600080fd5b50600436106100365760003560e01c806380fc1fe31461003b578063d4aae0c414610050575b600080fd5b61004e610049366004610267565b61007f565b005b600054610063906001600160a01b031681565b6040516001600160a01b03909116815260200160405180910390f35b6000546040516380fc1fe360e01b81526001600160a01b03909116906380fc1fe3906100b7908890889088908890889060040161035e565b600060405180830381600087803b1580156100d157600080fd5b505af11580156100e5573d6000803e3d6000fd5b50506000546040516380fc1fe360e01b81526001600160a01b0390911692506380fc1fe39150610121908890889088908890889060040161035e565b600060405180830381600087803b15801561013b57600080fd5b505af115801561014f573d6000803e3d6000fd5b50506000546040516380fc1fe360e01b81526001600160a01b0390911692506380fc1fe3915061018b908890889088908890889060040161035e565b600060405180830381600087803b1580156101a557600080fd5b505af11580156101b9573d6000803e3d6000fd5b505050505050505050565b634e487b7160e01b600052604160045260246000fd5b600082601f8301126101eb57600080fd5b813567ffffffffffffffff80821115610206576102066101c4565b604051601f8301601f19908116603f0116810190828211818310171561022e5761022e6101c4565b8160405283815286602085880101111561024757600080fd5b836020870160208301376000602085830101528094505050505092915050565b600080600080600060a0868803121561027f57600080fd5b85356001600160a01b038116811461029657600080fd5b9450602086013567ffffffffffffffff808211156102b357600080fd5b6102bf89838a016101da565b9550604088013594506060880135915069ffffffffffffffffffff19821682146102e857600080fd5b909250608087013590808211156102fe57600080fd5b5061030b888289016101da565b9150509295509295909350565b6000815180845260005b8181101561033e57602081850181015186830182015201610322565b506000602082860101526020601f19601f83011685010191505092915050565b6001600160a01b038616815260a06020820181905260009061038290830187610318565b85604084015269ffffffffffffffffffff198516606084015282810360808401526103ad8185610318565b9897505050505050505056fea264697066735822122008985a6e3600ecda98d8386b0a56ff625de23baebf258a4e6d60dae0bb30abad64736f6c63430008150033",
    "linkReferences": {}
  },
  "methodIdentifiers": {
    "kernel()": "d4aae0c4",
    "withdraw(address,bytes,uint256,bytes22,bytes)": "80fc1fe3"
  },
  "id": 22
}