{
  "abi": [
    {
      "inputs": [
        {
          "internalType": "address",
          "name": "ticketOwner",
          "type": "address"
        },
        {
          "internalType": "bytes",
          "name": "receiver",
          "type": "bytes"
        },
        {
          "internalType": "uint256",
          "name": "amount",
          "type": "uint256"
        },
        {
          "internalType": "bytes22",
          "name": "ticketer",
          "type": "bytes22"
        },
        {
          "internalType": "bytes",
          "name": "content",
          "type": "bytes"
        }
      ],
      "name": "withdraw",
      "outputs": [],
      "stateMutability": "nonpayable",
      "type": "function"
    }
  ],
  "bytecode": {
    "object": "0x608060405234801561001057600080fd5b50610185806100206000396000f3fe608060405234801561001057600080fd5b506004361061002b5760003560e01c806380fc1fe314610030575b600080fd5b61004761003e366004610092565b50505050505050565b005b60008083601f84011261005b57600080fd5b50813567ffffffffffffffff81111561007357600080fd5b60208301915083602082850101111561008b57600080fd5b9250929050565b600080600080600080600060a0888a0312156100ad57600080fd5b87356001600160a01b03811681146100c457600080fd5b9650602088013567ffffffffffffffff808211156100e157600080fd5b6100ed8b838c01610049565b909850965060408a0135955060608a0135915069ffffffffffffffffffff198216821461011957600080fd5b9093506080890135908082111561012f57600080fd5b5061013c8a828b01610049565b989b979a5095985093969295929350505056fea264697066735822122034879bd33f23b440c737a74cb4d6515b3eb157d718a74751d023671b8c306caf64736f6c63430008150033",
    "linkReferences": {}
  },
  "methodIdentifiers": {
    "withdraw(address,bytes,uint256,bytes22,bytes)": "80fc1fe3"
  },
  "id": 22
}