{
  "abi": [
    {
      "inputs": [
        {
          "internalType": "bytes22",
          "name": "ticketer_",
          "type": "bytes22"
        },
        {
          "internalType": "bytes",
          "name": "content_",
          "type": "bytes"
        },
        {
          "internalType": "address",
          "name": "kernel_",
          "type": "address"
        },
        {
          "internalType": "string",
          "name": "name_",
          "type": "string"
        },
        {
          "internalType": "string",
          "name": "symbol_",
          "type": "string"
        },
        {
          "internalType": "uint8",
          "name": "decimals_",
          "type": "uint8"
        }
      ],
      "stateMutability": "nonpayable",
      "type": "constructor"
    },
    {
      "anonymous": false,
      "inputs": [
        {
          "indexed": true,
          "internalType": "address",
          "name": "owner",
          "type": "address"
        },
        {
          "indexed": true,
          "internalType": "address",
          "name": "spender",
          "type": "address"
        },
        {
          "indexed": false,
          "internalType": "uint256",
          "name": "value",
          "type": "uint256"
        }
      ],
      "name": "Approval",
      "type": "event"
    },
    {
      "anonymous": false,
      "inputs": [
        {
          "indexed": false,
          "internalType": "string",
          "name": "operation",
          "type": "string"
        },
        {
          "indexed": false,
          "internalType": "address",
          "name": "account",
          "type": "address"
        },
        {
          "indexed": false,
          "internalType": "uint256",
          "name": "value",
          "type": "uint256"
        }
      ],
      "name": "LogEvent",
      "type": "event"
    },
    {
      "anonymous": false,
      "inputs": [
        {
          "indexed": true,
          "internalType": "address",
          "name": "from",
          "type": "address"
        },
        {
          "indexed": true,
          "internalType": "address",
          "name": "to",
          "type": "address"
        },
        {
          "indexed": false,
          "internalType": "uint256",
          "name": "value",
          "type": "uint256"
        }
      ],
      "name": "Transfer",
      "type": "event"
    },
    {
      "inputs": [
        {
          "internalType": "address",
          "name": "owner",
          "type": "address"
        },
        {
          "internalType": "address",
          "name": "spender",
          "type": "address"
        }
      ],
      "name": "allowance",
      "outputs": [
        {
          "internalType": "uint256",
          "name": "",
          "type": "uint256"
        }
      ],
      "stateMutability": "view",
      "type": "function"
    },
    {
      "inputs": [
        {
          "internalType": "address",
          "name": "spender",
          "type": "address"
        },
        {
          "internalType": "uint256",
          "name": "amount",
          "type": "uint256"
        }
      ],
      "name": "approve",
      "outputs": [
        {
          "internalType": "bool",
          "name": "",
          "type": "bool"
        }
      ],
      "stateMutability": "nonpayable",
      "type": "function"
    },
    {
      "inputs": [
        {
          "internalType": "address",
          "name": "account",
          "type": "address"
        }
      ],
      "name": "balanceOf",
      "outputs": [
        {
          "internalType": "uint256",
          "name": "",
          "type": "uint256"
        }
      ],
      "stateMutability": "view",
      "type": "function"
    },
    {
      "inputs": [],
      "name": "decimals",
      "outputs": [
        {
          "internalType": "uint8",
          "name": "",
          "type": "uint8"
        }
      ],
      "stateMutability": "view",
      "type": "function"
    },
    {
      "inputs": [
        {
          "internalType": "address",
          "name": "spender",
          "type": "address"
        },
        {
          "internalType": "uint256",
          "name": "subtractedValue",
          "type": "uint256"
        }
      ],
      "name": "decreaseAllowance",
      "outputs": [
        {
          "internalType": "bool",
          "name": "",
          "type": "bool"
        }
      ],
      "stateMutability": "nonpayable",
      "type": "function"
    },
    {
      "inputs": [
        {
          "internalType": "address",
          "name": "account",
          "type": "address"
        },
        {
          "internalType": "uint256",
          "name": "value",
          "type": "uint256"
        },
        {
          "internalType": "uint256",
          "name": "",
          "type": "uint256"
        }
      ],
      "name": "deposit",
      "outputs": [],
      "stateMutability": "nonpayable",
      "type": "function"
    },
    {
      "inputs": [],
      "name": "getTicketHash",
      "outputs": [
        {
          "internalType": "uint256",
          "name": "",
          "type": "uint256"
        }
      ],
      "stateMutability": "view",
      "type": "function"
    },
    {
      "inputs": [
        {
          "internalType": "address",
          "name": "spender",
          "type": "address"
        },
        {
          "internalType": "uint256",
          "name": "addedValue",
          "type": "uint256"
        }
      ],
      "name": "increaseAllowance",
      "outputs": [
        {
          "internalType": "bool",
          "name": "",
          "type": "bool"
        }
      ],
      "stateMutability": "nonpayable",
      "type": "function"
    },
    {
      "inputs": [],
      "name": "name",
      "outputs": [
        {
          "internalType": "string",
          "name": "",
          "type": "string"
        }
      ],
      "stateMutability": "view",
      "type": "function"
    },
    {
      "inputs": [],
      "name": "symbol",
      "outputs": [
        {
          "internalType": "string",
          "name": "",
          "type": "string"
        }
      ],
      "stateMutability": "view",
      "type": "function"
    },
    {
      "inputs": [],
      "name": "totalSupply",
      "outputs": [
        {
          "internalType": "uint256",
          "name": "",
          "type": "uint256"
        }
      ],
      "stateMutability": "view",
      "type": "function"
    },
    {
      "inputs": [
        {
          "internalType": "address",
          "name": "to",
          "type": "address"
        },
        {
          "internalType": "uint256",
          "name": "amount",
          "type": "uint256"
        }
      ],
      "name": "transfer",
      "outputs": [
        {
          "internalType": "bool",
          "name": "",
          "type": "bool"
        }
      ],
      "stateMutability": "nonpayable",
      "type": "function"
    },
    {
      "inputs": [
        {
          "internalType": "address",
          "name": "from",
          "type": "address"
        },
        {
          "internalType": "address",
          "name": "to",
          "type": "address"
        },
        {
          "internalType": "uint256",
          "name": "amount",
          "type": "uint256"
        }
      ],
      "name": "transferFrom",
      "outputs": [
        {
          "internalType": "bool",
          "name": "",
          "type": "bool"
        }
      ],
      "stateMutability": "nonpayable",
      "type": "function"
    },
    {
      "inputs": [
        {
          "internalType": "address",
          "name": "account",
          "type": "address"
        },
        {
          "internalType": "uint256",
          "name": "value",
          "type": "uint256"
        },
        {
          "internalType": "uint256",
          "name": "",
          "type": "uint256"
        }
      ],
      "name": "withdraw",
      "outputs": [],
      "stateMutability": "nonpayable",
      "type": "function"
    }
  ],
  "bytecode": {
    "object": "0x60806040523480156200001157600080fd5b5060405162000e1038038062000e108339810160408190526200003491620001d6565b828260036200004483826200033c565b5060046200005382826200033c565b505050620000688686620000a460201b60201c565b6005556006805460ff909216600160a01b026001600160a81b03199092166001600160a01b039095169490941717909255506200043b92505050565b60008282604051602001620000bb92919062000408565b60408051601f1981840301815291905280516020909101209392505050565b634e487b7160e01b600052604160045260246000fd5b60005b838110156200010d578181015183820152602001620000f3565b50506000910152565b600082601f8301126200012857600080fd5b81516001600160401b0380821115620001455762000145620000da565b604051601f8301601f19908116603f01168101908282118183101715620001705762000170620000da565b816040528381528660208588010111156200018a57600080fd5b6200019d846020830160208901620000f0565b9695505050505050565b80516001600160a01b0381168114620001bf57600080fd5b919050565b805160ff81168114620001bf57600080fd5b60008060008060008060c08789031215620001f057600080fd5b86516001600160501b0319811681146200020957600080fd5b60208801519096506001600160401b03808211156200022757600080fd5b620002358a838b0162000116565b96506200024560408a01620001a7565b955060608901519150808211156200025c57600080fd5b6200026a8a838b0162000116565b945060808901519150808211156200028157600080fd5b506200029089828a0162000116565b925050620002a160a08801620001c4565b90509295509295509295565b600181811c90821680620002c257607f821691505b602082108103620002e357634e487b7160e01b600052602260045260246000fd5b50919050565b601f8211156200033757600081815260208120601f850160051c81016020861015620003125750805b601f850160051c820191505b8181101562000333578281556001016200031e565b5050505b505050565b81516001600160401b03811115620003585762000358620000da565b6200037081620003698454620002ad565b84620002e9565b602080601f831160018114620003a857600084156200038f5750858301515b600019600386901b1c1916600185901b17855562000333565b600085815260208120601f198616915b82811015620003d957888601518255948401946001909101908401620003b8565b5085821015620003f85787850151600019600388901b60f8161c191681555b5050505050600190811b01905550565b6001600160501b03198316815281516000906200042d816016850160208701620000f0565b919091016016019392505050565b6109c5806200044b6000396000f3fe608060405234801561001057600080fd5b50600436106100ea5760003560e01c806339bb44791161008c578063a457c2d711610066578063a457c2d7146101d5578063a9059cbb146101e8578063b5c5f672146101fb578063dd62ed3e1461020e57600080fd5b806339bb44791461019c57806370a08231146101a457806395d89b41146101cd57600080fd5b806318160ddd116100c857806318160ddd1461014557806323b872dd14610157578063313ce5671461016a578063395093511461018957600080fd5b806306fdde03146100ef578063095ea7b31461010d5780630efe6a8b14610130575b600080fd5b6100f7610221565b60405161010491906107dc565b60405180910390f35b61012061011b366004610846565b6102b3565b6040519015158152602001610104565b61014361013e366004610870565b6102cd565b005b6002545b604051908152602001610104565b6101206101653660046108a3565b610331565b600654600160a01b900460ff1660405160ff9091168152602001610104565b610120610197366004610846565b610355565b600554610149565b6101496101b23660046108df565b6001600160a01b031660009081526020819052604090205490565b6100f7610377565b6101206101e3366004610846565b610386565b6101206101f6366004610846565b610406565b610143610209366004610870565b610414565b61014961021c366004610901565b61046f565b60606003805461023090610934565b80601f016020809104026020016040519081016040528092919081815260200182805461025c90610934565b80156102a95780601f1061027e576101008083540402835291602001916102a9565b820191906000526020600020905b81548152906001019060200180831161028c57829003601f168201915b5050505050905090565b6000336102c181858561049a565b60019150505b92915050565b604080516060808252600490820152631b5a5b9d60e21b60808201526001600160a01b03851660208201529081018390527f5f0173c49990da6bd5d3779a7bff15ddc2e3f3dd74951ffb8246370fc991b8dc9060a0015b60405180910390a1505050565b60003361033f8582856105be565b61034a858585610638565b506001949350505050565b6000336102c1818585610368838361046f565b610372919061096e565b61049a565b60606004805461023090610934565b60003381610394828661046f565b9050838110156103f95760405162461bcd60e51b815260206004820152602560248201527f45524332303a2064656372656173656420616c6c6f77616e63652062656c6f77604482015264207a65726f60d81b60648201526084015b60405180910390fd5b61034a828686840361049a565b6000336102c1818585610638565b60408051606080825260049082015263313ab93760e11b60808201526001600160a01b03851660208201529081018390527f5f0173c49990da6bd5d3779a7bff15ddc2e3f3dd74951ffb8246370fc991b8dc9060a001610324565b6001600160a01b03918216600090815260016020908152604080832093909416825291909152205490565b6001600160a01b0383166104fc5760405162461bcd60e51b8152602060048201526024808201527f45524332303a20617070726f76652066726f6d20746865207a65726f206164646044820152637265737360e01b60648201526084016103f0565b6001600160a01b03821661055d5760405162461bcd60e51b815260206004820152602260248201527f45524332303a20617070726f766520746f20746865207a65726f206164647265604482015261737360f01b60648201526084016103f0565b6001600160a01b0383811660008181526001602090815260408083209487168084529482529182902085905590518481527f8c5be1e5ebec7d5bd14f71427d1e84f3dd0314c0f7b2291e5b200ac8c7c3b925910160405180910390a3505050565b60006105ca848461046f565b9050600019811461063257818110156106255760405162461bcd60e51b815260206004820152601d60248201527f45524332303a20696e73756666696369656e7420616c6c6f77616e636500000060448201526064016103f0565b610632848484840361049a565b50505050565b6001600160a01b03831661069c5760405162461bcd60e51b815260206004820152602560248201527f45524332303a207472616e736665722066726f6d20746865207a65726f206164604482015264647265737360d81b60648201526084016103f0565b6001600160a01b0382166106fe5760405162461bcd60e51b815260206004820152602360248201527f45524332303a207472616e7366657220746f20746865207a65726f206164647260448201526265737360e81b60648201526084016103f0565b6001600160a01b038316600090815260208190526040902054818110156107765760405162461bcd60e51b815260206004820152602660248201527f45524332303a207472616e7366657220616d6f756e7420657863656564732062604482015265616c616e636560d01b60648201526084016103f0565b6001600160a01b03848116600081815260208181526040808320878703905593871680835291849020805487019055925185815290927fddf252ad1be2c89b69c2b068fc378daa952ba7f163c4a11628f55a4df523b3ef910160405180910390a3610632565b600060208083528351808285015260005b81811015610809578581018301518582016040015282016107ed565b506000604082860101526040601f19601f8301168501019250505092915050565b80356001600160a01b038116811461084157600080fd5b919050565b6000806040838503121561085957600080fd5b6108628361082a565b946020939093013593505050565b60008060006060848603121561088557600080fd5b61088e8461082a565b95602085013595506040909401359392505050565b6000806000606084860312156108b857600080fd5b6108c18461082a565b92506108cf6020850161082a565b9150604084013590509250925092565b6000602082840312156108f157600080fd5b6108fa8261082a565b9392505050565b6000806040838503121561091457600080fd5b61091d8361082a565b915061092b6020840161082a565b90509250929050565b600181811c9082168061094857607f821691505b60208210810361096857634e487b7160e01b600052602260045260246000fd5b50919050565b808201808211156102c757634e487b7160e01b600052601160045260246000fdfea26469706673582212203ecb00706cd5b33efb54ede2cbdcd22debf609c53322b3fe20879eb95ba0909064736f6c63430008150033",
    "linkReferences": {}
  },
  "methodIdentifiers": {
    "allowance(address,address)": "dd62ed3e",
    "approve(address,uint256)": "095ea7b3",
    "balanceOf(address)": "70a08231",
    "decimals()": "313ce567",
    "decreaseAllowance(address,uint256)": "a457c2d7",
    "deposit(address,uint256,uint256)": "0efe6a8b",
    "getTicketHash()": "39bb4479",
    "increaseAllowance(address,uint256)": "39509351",
    "name()": "06fdde03",
    "symbol()": "95d89b41",
    "totalSupply()": "18160ddd",
    "transfer(address,uint256)": "a9059cbb",
    "transferFrom(address,address,uint256)": "23b872dd",
    "withdraw(address,uint256,uint256)": "b5c5f672"
  },
  "id": 24
}