{
  "abi": [
    {
      "inputs": [
        {
          "internalType": "address",
          "name": "precompile_",
          "type": "address"
        }
      ],
      "stateMutability": "nonpayable",
      "type": "constructor"
    },
    {
      "anonymous": false,
      "inputs": [
        {
          "indexed": false,
          "internalType": "uint256",
          "name": "num",
          "type": "uint256"
        }
      ],
      "name": "LogEvent",
      "type": "event"
    },
    {
      "inputs": [
        {
          "internalType": "string",
          "name": "target",
          "type": "string"
        }
      ],
      "name": "withdraw_base58",
      "outputs": [],
      "stateMutability": "payable",
      "type": "function"
    }
  ],
  "bytecode": {
    "object": "0x608060405234801561001057600080fd5b5060405161028038038061028083398101604081905261002f91610054565b600080546001600160a01b0319166001600160a01b0392909216919091179055610084565b60006020828403121561006657600080fd5b81516001600160a01b038116811461007d57600080fd5b9392505050565b6101ed806100936000396000f3fe60806040526004361061001e5760003560e01c8063cda4fee214610023575b600080fd5b6100366100313660046100b8565b610038565b005b6000546040516366d27f7160e11b81526001600160a01b0390911690819063cda4fee290349061006c908690600401610169565b6000604051808303818588803b15801561008557600080fd5b505af1158015610099573d6000803e3d6000fd5b50505050505050565b634e487b7160e01b600052604160045260246000fd5b6000602082840312156100ca57600080fd5b813567ffffffffffffffff808211156100e257600080fd5b818401915084601f8301126100f657600080fd5b813581811115610108576101086100a2565b604051601f8201601f19908116603f01168101908382118183101715610130576101306100a2565b8160405282815287602084870101111561014957600080fd5b826020860160208301376000928101602001929092525095945050505050565b600060208083528351808285015260005b818110156101965785810183015185820160400152820161017a565b506000604082860101526040601f19601f830116850101925050509291505056fea264697066735822122009a080a9af0c6c62658c62b44fb6af28cb115dbd5484bdf4444372204c8aec1064736f6c63430008150033",
    "linkReferences": {}
  },
  "methodIdentifiers": {
    "withdraw_base58(string)": "cda4fee2"
  },
  "id": 28
}