{
  "abi": [
    {
      "inputs": [
        {
          "internalType": "string",
          "name": "target",
          "type": "string"
        }
      ],
      "name": "withdraw_base58",
      "outputs": [],
      "stateMutability": "payable",
      "type": "function"
    }
  ],
  "bytecode": {
    "object": "0x608060405234801561001057600080fd5b50610124806100206000396000f3fe608060405260043610601c5760003560e01c8063cda4fee2146021575b600080fd5b602f602c3660046047565b50565b005b634e487b7160e01b600052604160045260246000fd5b600060208284031215605857600080fd5b813567ffffffffffffffff80821115606f57600080fd5b818401915084601f830112608257600080fd5b81358181111560915760916031565b604051601f8201601f19908116603f0116810190838211818310171560b65760b66031565b8160405282815287602084870101111560ce57600080fd5b82602086016020830137600092810160200192909252509594505050505056fea2646970667358221220e8d02844ad37a15eeaf710b47dcdd343a5043a3a10b317123d7f46ee34c7cc0e64736f6c63430008150033",
    "linkReferences": {}
  },
  "methodIdentifiers": {
    "withdraw_base58(string)": "cda4fee2"
  },
  "id": 28
}